:100000000C9435000C945D000C945D000C945D0024
:100010000C945D000C945D000C945D000C945D00EC
:100020000C945D000C945D000C945D000C945D00DC
:100030000C945D000C945D000C945D000C945D00CC
:100040000C946C010C945D000C94DC010C94B601D2
:100050000C945D000C945D000C945D000C945D00AC
:100060000C945D000C945D00A10211241FBECFEF23
:10007000D8E0DEBFCDBF11E0A0E0B1E0ECEAF5E0F2
:1000800002C005900D92AE31B107D9F721E0AEE183
:10009000B1E001C01D92A43CB207E1F710E0C5E356
:1000A000D0E004C02197FE010E94CE02C433D107E4
:1000B000C9F70E940E020C94D4020C940000AF9277
:1000C000BF92CF92DF92EF92FF920F931F93CF9345
:1000D000DF936C017B018B01040F151FEB015E01A7
:1000E000AE18BF08C017D10759F06991D601ED913C
:1000F000FC910190F081E02DC6010995892B79F7DB
:10010000C501DF91CF911F910F91FF90EF90DF908C
:10011000CF90BF90AF900895FC01538D448D252F53
:1001200030E0842F90E0821B930B541710F0CF9691
:10013000089501970895FC01918D828D981761F0C3
:10014000A28DAE0FBF2FB11D5D968C91928D9F5FDA
:100150009F73928F90E008958FEF9FEF0895FC01B9
:10016000918D828D981731F0828DE80FF11D858D6C
:1001700090E008958FEF9FEF0895FC01918D228DFF
:10018000892F90E0805C9F4F821B91098F73992784
:1001900008958EE191E00E94BD0021E0892B09F4D1
:1001A00020E0822F089580E090E0892B29F00E94C2
:1001B000C90081110C9400000895FC01A48DA80FC2
:1001C000B92FB11DA35ABF4F2C91848D90E0019699
:1001D0008F739927848FA689B7892C93A089B189B9
:1001E0008C91837080648C93938D848D981306C05A
:1001F0000288F389E02D80818F7D80830895EF92BE
:10020000FF920F931F93CF93DF93EC0181E0888FD0
:100210009B8D8C8D98131AC0E889F989808185FFA0
:1002200015C09FB7F894EE89FF896083E889F98942
:1002300080818370806480839FBF81E090E0DF9144
:10024000CF911F910F91FF90EF900895F62E0B8D97
:1002500010E00F5F1F4F0F731127E02E8C8D8E1152
:100260000CC00FB607FCFACFE889F989808185FFB9
:10027000F5CFCE010E94DD00F1CFEB8DEC0FFD2F0D
:10028000F11DE35AFF4FF0829FB7F8940B8FEA8974
:10029000FB8980818062CFCFCF93DF93EC01888D83
:1002A0008823B9F0AA89BB89E889F9898C9185FDF1
:1002B00003C0808186FD0DC00FB607FCF7CF8C917F
:1002C00085FFF2CF808185FFEDCFCE010E94DD005A
:1002D000E9CFDF91CF9108951F920F920FB60F9241
:1002E00011242F933F938F939F93AF93BF9380914C
:1002F000C0019091C101A091C201B091C3013091A0
:10030000BF0123E0230F2D3758F50196A11DB11D24
:100310002093BF018093C0019093C101A093C201BB
:10032000B093C3018091BB019091BC01A091BD012C
:10033000B091BE010196A11DB11D8093BB019093A8
:10034000BC01A093BD01B093BE01BF91AF919F913D
:100350008F913F912F910F900FBE0F901F90189586
:1003600026E8230F0296A11DB11DD2CF1F920F9236
:100370000FB60F9211242F933F934F935F936F9378
:100380007F938F939F93AF93BF93EF93FF938EE1F0
:1003900091E00E94DD00FF91EF91BF91AF919F919D
:1003A0008F917F916F915F914F913F912F910F901E
:1003B0000FBE0F901F9018951F920F920FB60F92BD
:1003C00011242F938F939F93EF93FF93E0912E012E
:1003D000F0912F018081E0913401F091350182FD8F
:1003E0001BC09081809137018F5F8F7320913801FE
:1003F000821741F0E0913701F0E0E25EFE4F958F09
:1004000080933701FF91EF919F918F912F910F90E2
:100410000FBE0F901F9018958081F4CF789484B50B
:10042000826084BD84B5816084BD85B5826085BDF0
:1004300085B5816085BD80916E00816080936E007E
:100440001092810080918100826080938100809170
:100450008100816080938100809180008160809321
:1004600080008091B10084608093B1008091B000E1
:1004700081608093B00080917A00846080937A00DC
:1004800080917A00826080937A0080917A00816006
:1004900080937A0080917A00806880937A0010922D
:1004A000C100E0912E01F0912F0182E08083E09164
:1004B0002A01F0912B011082E0912C01F0912D0185
:1004C0008FEC808310923601E0913201F09133017C
:1004D00086E08083E0913001F0913101808180617C
:1004E0008083E0913001F0913101808188608083C8
:1004F000E0913001F0913101808180688083E0914A
:100500003001F091310180818F7D808348E050E09F
:1005100062E171E08EE191E00E945F0042E050E014
:100520006BE171E08EE191E00E945F00C0E0D0E0FD
:100530002097F1F30E94C9008823D1F30E940000A4
:10054000F7CFEEE1F1E01382128288EE93E0A0E0B3
:10055000B0E084839583A683B78384E091E09183A0
:10056000808385EC90E09587848784EC90E0978782
:10057000868780EC90E0918B808B81EC90E0938B70
:10058000828B82EC90E0958B848B86EC90E0978B4D
:10059000868B118E128E138E148E0895EE0FFF1F10
:0C05A0000590F491E02D0994F894FFCF31
:1005AC0000000000FF005F008C004C01BD009B00B0
:0E05BC00AF0054657374696E672E000D0A005F
:00000001FF
