:100000000C9463000C948B000C948B000C948B006C
:100010000C948B000C948B000C948B000C948B0034
:100020000C9463120C948B000C948B000C948B003A
:100030000C948B000C948B000C948B000C948B0014
:100040000C94C1110C948B000C9431120C940B1273
:100050000C948B000C948B000C948B000C948B00F4
:100060000C948B000C948B000000000024002700EF
:100070002A0000000000250028002B0000000008D6
:10008000000201000003040700000000000000005F
:1000900000000000230026002900040404040404D6
:1000A0000404020202020202030303030303010227
:1000B00004081020408001020408102001020408F6
:1000C000102063135B1911241FBECFEFD8E0DEBFF1
:1000D000CDBF25E0ACE5B3E001C01D92AE3BB20759
:1000E000E1F713E0A0E0B1E0EEE1F9E302C0059032
:1000F0000D92AC35B107D9F710E0C2E6D0E004C0EC
:100100002197FE010E94811AC136D107C9F70E94CA
:10011000A8130C94821C0C940000E091AD05F091A2
:10012000AE05238534852817390728F48091AC055E
:1001300081608093AC0508950F931F93CF93DF9355
:10014000E091AD05F091AE054091EE03828510E09F
:10015000481708F064C0142F11700091ED030111CD
:100160004FC0842F90E0880F991FE80FF91F038478
:10017000F485E02D2CEE3FEF112311F024E130E067
:10018000C091EB03D091EC032C0F3D1FC90163E438
:1001900070E00E946D1AE617F70760F0C90168E287
:1001A00070E00E946D1A6F5F7F4F81E090E06E17E4
:1001B0007F0710F52C0F3D1FC90163E470E00E941A
:1001C0006D1AE617F70750F0C90168E270E00E9467
:1001D0006D1A6F5F7F4F6E177F0760F42C0F3D1F06
:1001E000C90163E470E00E946D1AE617F707E8F4AE
:1001F0001FEF15C082E090E09093EA038093E9033B
:100200000F5F0093ED038091E9039091EA030817D3
:10021000190628F01092ED034F5F4093EE03812FF3
:10022000DF91CF911F910F910895C90168E270E0AD
:100230000E946D1A6F5F7F4F6E177F07C8F283E0D1
:1002400090E0DACF833081F028F4813099F0823069
:10025000A9F008958730A9F08830C9F08430B1F44E
:10026000809180008F7D03C0809180008F77809384
:100270008000089584B58F7784BD089584B58F7DFF
:10028000FBCF8091B0008F778093B000089580916C
:10029000B0008F7DF9CFCF93DF93282F30E0F901A5
:1002A000E458FF4F8491F901E255FF4FD491F901D1
:1002B000E656FF4FC491CC23A1F081110E94220188
:1002C000EC2FF0E0EE0FFF1FE057FF4FA591B49128
:1002D000EC91ED2381E090E009F480E0DF91CF9193
:1002E000089580E090E0FACF1F93CF93DF93282FFB
:1002F00030E0F901E458FF4F8491F901E255FF4FD6
:10030000D491F901E656FF4FC491CC23A9F0162FE2
:1003100081110E942201EC2FF0E0EE0FFF1FEE583A
:10032000FF4FA591B4918FB7F894EC91111108C0CB
:10033000D095DE23DC938FBFDF91CF911F9108957D
:10034000DE2BF8CFCF93DF9390E0FC01E255FF4F17
:10035000249186569F4FFC0184918823C9F090E038
:10036000880F991FFC01E859FF4FA591B491FC013A
:10037000EE58FF4FC591D49161110DC09FB7F8940D
:100380008C91209582238C938881282328839FBF7A
:10039000DF91CF910895623051F49FB7F8943C916A
:1003A000822F809583238C93E8812E2BEFCF8FB7FC
:1003B000F894EC912E2B2C938FBFEACFACE8B4E0ED
:1003C00011968C931197282F30E0F901E255FF4FD9
:1003D000E4911496EC931497F901E656FF4FE491DB
:1003E000F0E0EE0FFF1FE057FF4F25913491139679
:1003F0003C932E93129760E00C94A2013FB7F894BF
:100400008091E5039091E603A091E703B091E803A2
:1004100026B5A89B05C02F3F19F00196A11DB11D5F
:100420003FBFBA2FA92F982F8827BC01CD01620F9B
:10043000711D811D911D42E0660F771F881F991F56
:100440004A95D1F70895AF92BF92CF92DF92EF9283
:10045000FF920F931F93CF93DF936C017B018B016E
:10046000040F151FEB015E01AE18BF08C017D107BE
:1004700059F06991D601ED91FC910190F081E02D48
:10048000C6010995892B79F7C501DF91CF911F919D
:100490000F91FF90EF90DF90CF90BF90AF900895B5
:1004A000FC01538D448D252F30E0842F90E0821B7A
:1004B000930B541710F0CF96089501970895FC01FF
:1004C000918D828D981761F0A28DAE0FBF2FB11D57
:1004D0005D968C91928D9F5F9F73928F90E00895AF
:1004E0008FEF9FEF0895FC01918D828D981731F069
:1004F000828DE80FF11D858D90E008958FEF9FEFBD
:100500000895FC01918D228D892F90E0805C9F4F92
:10051000821B91098F73992708958FEE93E00E94B3
:10052000810221E0892B09F420E0822F089580E0E8
:1005300090E0892B29F00E948D0281110C9400001B
:100540000895FC01A48DA80FB92FB11DA35ABF4F68
:100550002C91848D90E001968F739927848FA689C2
:10056000B7892C93A089B1898C91837080648C9316
:10057000938D848D981306C00288F389E02D8081C5
:100580008F7D80830895EF92FF920F931F93CF93F7
:10059000DF93EC0181E0888F9B8D8C8D98131AC0BE
:1005A000E889F989808185FF15C09FB7F894EE89A5
:1005B000FF896083E889F989808183708064808302
:1005C0009FBF81E090E0DF91CF911F910F91FF904D
:1005D000EF900895F62E0B8D10E00F5F1F4F0F73F5
:1005E0001127E02E8C8D8E110CC00FB607FCFACFB0
:1005F000E889F989808185FFF5CFCE010E94A102AB
:10060000F1CFEB8DEC0FFD2FF11DE35AFF4FF08280
:100610009FB7F8940B8FEA89FB8980818062CFCFE6
:10062000CF93DF93EC01888D8823B9F0AA89BB8929
:10063000E889F9898C9185FD03C0808186FD0DC014
:100640000FB607FCF7CF8C9185FFF2CF808185FF35
:10065000EDCFCE010E94A102E9CFDF91CF910895A5
:10066000CF92DF92EF92FF920F931F930E97FC01B0
:10067000EE0FFF1FEE0FFF1FE856FC4FC080D1802A
:10068000E280F3804FB7F8940091E1031091E20308
:100690002091E3033091E4034FBF0C151D052E0597
:1006A0003F05FCF0880F991FFC01E050FF4F80814F
:1006B0009181092E000CAA0BBB0BAC01BD014C0DA6
:1006C0005D1D6E1D7F1D81E0401751076207730796
:1006D0000CF080E01F910F91FF90EF90DF90CF9092
:1006E000089581E0F7CF8F929F92AF92BF92CF9201
:1006F000DF92EF92FF924B015C010E94FE016B01C1
:100700007C0124E0C21AD108E108F1080E94FE0130
:100710006C197D098E099F09681579058A059B0565
:10072000A8F3FF90EF90DF90CF90BF90AF909F9095
:100730008F900895FC019B0124513109C90163E4A4
:1007400070E00E946D1AE617F70758F0C90168E2D9
:1007500070E00E946D1A6F5F7F4F81E06E177F0718
:1007600008F480E008952F923F924F925F926F922B
:100770007F928F929F92AF92BF92CF92DF92EF9231
:10078000FF920F931F93CF93DF9300D000D000D040
:10079000CDB7DEB7382E6D835A013C832B834801D9
:1007A0002E2C9A012C5E3F4FC90163E470E00E9439
:1007B0006D1A8B01C90168E270E00E946D1A9B01FD
:1007C0002F5F3F4F3A8329835D81452F50E0440FCF
:1007D000551F455F5F4F8091AD059091AE05480F65
:1007E000591F5E834D83412C512C32014394C12CFF
:1007F000D12C76013320B9F18B819C81A816B906E2
:10080000E1F4B401ED81FE81828193810E949A031B
:10081000222011F1CC0CDD1CEE1CFF1C882311F0F2
:100820006894C0F8440C551C661C771C3A948D8162
:100830009E8104969E838D83DDCFED81FE81208194
:1008400031812017310730F081E049815A81421708
:100850005307F0F680E0DCCF882321F3C428D528A5
:10086000E628F728DFCFC0929205D0929305E09258
:100870009405F092950581E026960FB6F894DEBFB8
:100880000FBECDBFDF91CF911F910F91FF90EF90E1
:10089000DF90CF90BF90AF909F908F907F906F90A0
:1008A0005F904F903F902F900895EF920F931F937A
:1008B000FC01862F642FEE24E3949785911101C0EB
:1008C000E12C0185128523853485478150850E945E
:1008D000B3031F910F91EF9008950F931F93CF9340
:1008E000DF93EC01E091AD05F091AE05058516852D
:1008F0002B813C812C5E3F4FC90163E470E00E9474
:100900006D1A06171707A0F0C90168E270E00E948F
:100910006D1A6F5F7F4F6017710750F06D817E8198
:1009200087859089DF91CF911F910F910C949A0345
:1009300080E0DF91CF911F910F9108950E94DE0119
:100940001092830582E08093B0008093B10084E62A
:100950008093B3008093B4001092B20080918C0415
:10096000833011F410928C0484E080937000089519
:100970000F931F93CF93DF938C01EC012E97CC0F35
:10098000DD1FFE01EC52FC4F80819181019791F4B3
:1009900062E0802F0E94A201802F0E944B01FE0185
:1009A000E853FC4F21E030E0019711F030E020E007
:1009B00031832083CC52DC4F88819981029739F4AE
:1009C000C801DF91CF911F910F910C949E04DF918C
:1009D000CF911F910F910895EF92FF920F931F9364
:1009E000CF93DF93EC017C0182E0E81AF1088701E4
:1009F000000F111FF801E055FC4F80819181019794
:100A000079F462E08C2F0E94A2018C2F0E944B018E
:100A1000F701E457FC4F21E0019709F020E0208323
:100A2000F801E055FC4F80819181029749F4CE0195
:100A3000DF91CF911F910F91FF90EF900C949E0446
:100A4000DF91CF911F910F91FF90EF900895E5E80E
:100A5000F5E08AE190E09283818385E090E09483E1
:100A6000838361E080810C94A201809183058823B7
:100A700019F060E00C9474012D980895882349F0D2
:100A800080918305882319F061E00C9474012D9AFC
:100A900008950C9435054F925F926F927F928F92DA
:100AA0009F92AF92BF92CF92DF92EF92FF92CF933D
:100AB000DF93CDB7DEB72D970FB6F894DEBF0FBE2C
:100AC000CDBF7C010E94FE0169837A838B839C8366
:100AD0004B015C011D86B0E0A0E09701AD012552FD
:100AE0003109410951092D833E834F83588797016E
:100AF000AD01275031094109510929873A874B87B0
:100B00005C87F89461E0809185050E947401809172
:100B10008805909189058230910538F0880F991FDA
:100B2000880F991F05970197F1F760E0809185057F
:100B30000E94740178943D85311107C0809184052D
:100B4000823019F481E00E943E05809186059091E3
:100B50008705880E991EA11CB11CF8940E94FE0105
:100B60002B013C016B0149815A81C41AD50AF12C31
:100B7000E12C8D819E81AF81B885C816D906EA0621
:100B8000FB0634F080918405823011F40E94350513
:100B900029853A854B855C85C216D306E406F506A1
:100BA000B4F078942D960FB6F894DEBF0FBECDBF8B
:100BB000DF91CF91FF90EF90DF90CF90BF90AF90FB
:100BC0009F908F907F906F905F904F90089531E04D
:100BD0003D87481459046A047B0408F4BFCF91CFC1
:100BE0000E94270580E891E10E944B0560E871E1D1
:100BF00080E090E00E94730380E392E00E944B0546
:100C000060E372E080E090E00E94730380E392E092
:100C10000C944B050E94270580E093E20E944B054F
:100C200060EC78E080E090E00E94730380E392E063
:100C30000C944B052F923F924F925F926F927F924E
:100C40008F929F92AF92BF92CF92DF92EF92FF92DC
:100C50000F931F93CF93DF93CDB7DEB7E9970FB60E
:100C6000F894DEBF0FBECDBF80918C0410E08330BE
:100C700021F5809195048823D1F180E48093AC051F
:100C800010928B0510928A0510928F0510928E0596
:100C900010928D0510928C0510929205109293057A
:100CA00010929405109295051092AB051092AA052A
:100CB0008091AC0586FF42C011E0812FE9960FB606
:100CC000F894DEBF0FBECDBFDF91CF911F910F9182
:100CD000FF90EF90DF90CF90BF90AF909F908F905C
:100CE0007F906F905F904F903F902F90089510925B
:100CF000AC0580918A0590918B059093B005809307
:100D0000AF0580918E0590918F05B0E0A0E08093B3
:100D1000B5059093B605A093B705B093B80580913B
:100D20008C0590918D05B0E0A0E08093B105909383
:100D3000B205A093B305B093B405A2CFE091AD0581
:100D4000F091AE052285822F8F7B843009F098C008
:100D500085859685865891098C35910508F090C057
:100D600087859089243031F58197489708F088C0AD
:100D7000818992890897089708F082C081E0809362
:100D8000AC058091B1059091B20590938D0580934B
:100D90008C058091B5059091B60590938F05809351
:100DA0008E058091AF059091B00590938B0580934F
:100DB0008A0582CF825491098F9708F061C043E081
:100DC00060E28CE092E00E945504182F882309F419
:100DD00057C0209192059091930560919405809160
:100DE0009505462F50E050938F0540938E05422F76
:100DF000592F4E3E37E8530701F523E030E030939A
:100E00008B0520938A0590E090938D0580938C0547
:100E100080E290E09093AB058093AA058AE795E085
:100E20000E948D008091AC0580FF46CF89E090E064
:100E300090938B0580938A0540CF9095291310C01D
:100E400030E030938D0520938C05982F9095691391
:100E50000CC088E090E090938B0580938A05D8CFF2
:100E600050938D0540938C05F0CF2AE030E030930D
:100E70008B0520938A0560938E0580938F05C8CFDC
:100E8000E091AD05F091AE058285843609F095C0FC
:100E900088EF91E00E946D04882309F48EC043E03E
:100EA00060E188EF91E00E945504882309F485C031
:100EB00000919205C02ED0909305FBE0AF2EB12C8F
:100EC00082E0C81680E2D80619F1EEE0AE2EB12C11
:100ED0009AEAC9169AE5D906D9F07DE0A72EB12C79
:100EE000E4E5CE16E2E3DE0699F06FE0A62EB12C23
:100EF000F3E0CF16F1E0DF0659F0A0E1AA2EB12C05
:100F000023E2C2162BECD20619F05CE0A52EB12C20
:100F100043E260E288EF91E00E945504182F882395
:100F200009F44BC00D258091920590919305A091F5
:100F30009405B09195059C0144E0369527954A9516
:100F4000E1F730938D0520938C052A2F30E0309304
:100F50008F0520938E05382F3A273927202F229589
:100F60002F7020272F70482F4F70241719F024E07E
:100F70002093AC05ECE0AE16B10449F42091AC0529
:100F800020612093AC05D0929105C09290053B174B
:100F900029F08091AC0584608093AC0580E390E0FB
:100FA0009093AB058093AA05B0928B05A0928A0519
:100FB0008AE397E00E948D0080CEE091AD05F0912C
:100FC000AE058285803209F071C041E06FE084EEA9
:100FD00091E00E945504182F882309F467C0E0911E
:100FE000AD05F091AE05DF01A75BBF4F8D919C91E0
:100FF0000497059708F05AC0809192059091930547
:10100000A0919405B09195059C012F7133273093E1
:101010008D0520938C0505E0B695A7959795879546
:101020000A95D1F7292F2370AC01552750938F05CE
:1010300040938E05438554854536544080F5309164
:10104000B9053F5F3093B905323018F031E0309385
:10105000AC0590FF14C03091AC05432F4260409323
:10106000AC054091B5055091B6058095841719F0EF
:1010700036603093AC0540938E0550938F05215018
:10108000223088F486E190E090938B0580938A0566
:101090008FE090E09093AB058093AA050ECE10925E
:1010A000B905223079F384E090E0EECF80ED91E055
:1010B0000E946D04882309F44FC0E091AD05F091C2
:1010C000AE0582858A3129F08A3219F0803209F022
:1010D00043C090E0BC016150710977FDBC0175957A
:1010E000679543E080ED91E00E945504182F882316
:1010F00099F18091920590919305A0919405B091FA
:1011000095059C012F77332730938F0520938E050B
:10111000E7E0B695A79597958795EA95D1F79093CF
:101120008D0580938C05E091AD05F091AE0522858B
:1011300030E0C901019797FDC90195958795909376
:10114000AB058093AA0587E190E090938B0580938F
:101150008A0580EE91E02ECF81E08093EE0389E74F
:1011600093E09093EC038093EB031092ED030E94C5
:101170009C00813009F065C0812C912C540110E055
:10118000E091AD05F091AE0592858091EE0389174F
:10119000E0F40E949C00082F0E949C0001110BC0EB
:1011A000813009F04EC0880C991CAA1CBB1C6894A5
:1011B00080F81F5FE5CF013009F043C0811141C0C5
:1011C000880C991CAA1CBB1CF4CF812F90E0909333
:1011D000AB058093AA058092920590929305A09208
:1011E0009405B0929505882D8F7390E090938F05AC
:1011F00080938E05940146E0369527954A95E1F750
:101200002F71332730938D0520938C05940122276D
:101210003071232B31F4805C9F4F90938F05809326
:101220008E0580E893FC88E88093AC0581E190E02E
:1012300090938B0580938A058FEC99E00E948D0036
:101240003BCDE091AD05F091AE05858596858897FB
:101250004D9708F046C0878590890C970B9708F04A
:1012600040C083E08093EE038CEB91E09093EC031D
:101270008093EB031092ED030E949C00813089F56E
:101280000E949C0081112DC0812C912C540110E0F2
:10129000E091AD05F091AE0592858091EE0389173E
:1012A00008F080C00E949C00F82E1330B1F00E941C
:1012B0009C00082F133021F40E949C00081311C0D9
:1012C00021E0F21265C001110CC0880C991CAA1C07
:1012D000BB1C689480F81F5FDBCF0E949C00F8164F
:1012E00031F3E091AD05F091AE0522852C3311F07C
:1012F0002430A1F4858596858638910578F0833E63
:10130000910508F495C08E58910968EB7BE0B7E031
:10131000CB2ED12C8236910508F48FC0E091AD051B
:10132000F091AE058285823209F4EDC0843209F075
:1013300014C184E491E00E946D04882309F40DC176
:1013400043E060E184E491E00E945504182F882373
:1013500009F403C18091920590919305A0919405A1
:10136000B0919505492F5A2F6B2F772750938F05F2
:1013700040938E05992790938D0580938C0580E18D
:1013800090E09093AB058093AA0585E090E050CD66
:10139000F110A7CF013009F0A4CF880C991CAA1C2A
:1013A000BB1C99CF812F90E09093AB058093AA0549
:1013B0008092920590929305A0929405B092950523
:1013C000892D282D30E0143200F580E88093AC059B
:1013D00030938F0520938E05892D90E090938D0595
:1013E00080938C05A0FE03C088E88093AC0515317E
:1013F00028F08091AC0580618093AC0583E79AE08A
:101400000E948D0082E190E0D0CC90E89093AC05F2
:1014100097FE03C098E89093AC0530938F05209316
:101420008E058F7790E090938D0580938C05E6CFA5
:1014300068E670E1A6E0CA2ED12C87859089243019
:1014400061F44D97469708F069CF81899289079793
:10145000089708F063CF81E892CC0E949A03882312
:1014600009F45CCF43E06CE180E391E00E94550415
:10147000182F882309F452CF80E88093AC0580911F
:10148000920590919305A0919405B09195054C011A
:101490005D0144E0B694A794979487944A95D1F758
:1014A000B40190928F0580928E054C015D0154E14C
:1014B000B694A794979487945A95D1F790928D05F6
:1014C00080928C0544E050E020E0362F3F70230FDF
:1014D00034E0769567953A95E1F741505109A9F7BF
:1014E00082278F709927AA27BB27892B8A2B8B2BC2
:1014F00019F084E88093AC05D0928B05C0928A05E0
:101500008CE190E0C7CD838594858C3E9C4508F0A6
:10151000D3CB858596850897079708F0CDCBE35BFD
:10152000FF4F808191810897079708F0C5CB81E034
:101530008093AC058091B1059091B20590938D0593
:1015400080938C058091B5059091B60590938F0599
:1015500080938E0585E090E028CCE091AD05F09178
:10156000AE050285802F8F7D843419F0063009F096
:101570007FC088E591E00E946D04182F882309F44C
:1015800077C00630B1F481E08093AC058091B1055D
:101590009091B20590938D0580938C058091B5054F
:1015A0009091B60590938F0580938E0585E190E02C
:1015B0003FCC43E060E288E591E00E945504182F9B
:1015C000882309F455C0F0909405009195059091F9
:1015D00092058091930590938C0580938D05E09101
:1015E000AD05F091AE058285843651F543E460E1A6
:1015F00088E591E00E9455048823D1F180919205FD
:10160000909193050095F01631F09095981719F088
:1016100094E09093AC05982F8F2D90938F05809335
:101620008E0580E390E09093AB058093AA0584E15A
:1016300090E090938B0580938A058FE595E0BACC76
:10164000802F8095F8120FC08F2D90E090938F051A
:1016500080938E0580E290E09093AB058093AA057D
:1016600083E190E0E6CFF0928E0500938F05F2CFF4
:10167000E091AD05F091AE058285843281F58CE66E
:1016800091E00E946D04882351F143E060E18CE613
:1016900091E00E945504182F882309F100919205CA
:1016A000809193058095081719F084E08093AC052C
:1016B0008DE692E00E948D00802F90E090938F0540
:1016C00080938E0510928D0510928C0580E190E03C
:1016D0009093AB058093AA058DE190E0A9CBE091B2
:1016E000AD05F091AE0582858434D9F480E891E0AF
:1016F0000E946D048823A9F043E060E280E891E055
:101700000E945504182F882361F080E88093AC056F
:1017100080E290E09093AB058093AA058CE190E085
:1017200087CB84E991E00E946D04E091AD05F091D2
:10173000AE059285882309F457C0943209F054C04D
:1017400043E060E184E991E00E945504182F88236A
:1017500009F44AC0E091AD05F091AE05DF01AF5A42
:10176000BF4F8D919C9102970497F0F580E880938C
:10177000AC059091920580919305292F382F482F21
:1017800042954F708F70A4E036952795AA95E1F7A2
:101790002F70392F3F709FE0942798279227391791
:1017A00019F094E89093AC0563857485683F7141A6
:1017B00028F49091AC0592609093AC0540938C0511
:1017C00010928D05E0E18E9FC0011124822B909331
:1017D0008F0580938E0580E190E09093AB05809318
:1017E000AA058AE190E024CB88EA91E00E946D048A
:1017F000E091AD05F091AE059285882389F1943290
:1018000079F543E060E188EA91E00E945504182FE1
:10181000882331F1E091AD05F091AE05EF5AFF4F0D
:101820008081918108970797D8F4809192059091D3
:10183000930598279F3FA1F490E090938F058093A4
:101840008E0580E190E09093AB058093AA0589E135
:1018500090E090938B0580938A0588ED94E0AACB65
:10186000E091AD05F091AE058285803709F05AC050
:1018700041E068E08CEB91E00E945504882309F474
:1018800051C08091920590919305A0919405B091DB
:101890009505892B8A2B8B2B09F044C041E16FE120
:1018A0008CEB91E00E9455048823E1F18090920531
:1018B00090909305A0909405B09095054FE461E158
:1018C0008CEB91E00E945504182F882359F19091D8
:1018D00093058091940589279827892790938F05F0
:1018E00080938E058092920590929305A092940524
:1018F000B092950590928D0580928C05B0929105DD
:10190000A09290058BE190E090938B0580938A05DF
:1019100088E390E09093AB058093AA0580E88093DC
:10192000AC05CBC9A091AD05B091AE051A968C91CE
:101930001A97843108F430C18E010F5F1F4F82E384
:10194000F80111928A95E9F71A964C911A9742502C
:10195000550B60E023E0822F90E084179507BCF4DC
:10196000880F991FFD01E80FF91F83859485823345
:10197000910508F011C1F801E80FF91F30813F5FB0
:1019800030836817190608F4682F2E5FE4CF1EAA6B
:101990001DAA9E012B5C3F4FAE014A5C5F4FC80100
:1019A0000E942113882309F4F7C082E3F801119201
:1019B0008A95E9F7A091AD05B091AE051A964C91C4
:1019C0001A974250550B60E024E0822F90E0841774
:1019D0009507BCF4880F991FFD01E80FF91F838557
:1019E00094858233910508F0D7C0F801E80FF91FFC
:1019F00030813F5F30836817190608F4682F2E5F27
:101A0000E4CF1CAA1BAA9E012D5C3F4FAE014C5C8B
:101A10005F4FC8010E942113882309F4BDC0E091E3
:101A2000AD05F091AE05828586958150990BCBA8C6
:101A30008DA89C0121503109CC2019F0811001C0E2
:101A4000C9019093AB058093AA059C0121503109EF
:101A5000F5E036952795FA95E1F729AF811003C097
:101A6000CC2009F499C06CA892E3699E300111243E
:101A7000AEA8A99E50011124899E40011124C99E3F
:101A80006001112488AFF3E0FFABF12C72E0272E48
:101A9000312C44244394512C88AD813208F080E2EB
:101AA0009DA9992309F466C050928B0540928A053E
:101AB000E12C83019501A4016FA90E94B303182FA3
:101AC000882309F469C024E0F29EF0011124EE5548
:101AD000FA4F8091920590919305A0919405B09151
:101AE000950580839183A283B3833FA9305C3FAB8C
:101AF000F39488AD805288AF99AD9F1568F680ED5C
:101B000097E00E948D00E091AD05F091AE0545850E
:101B1000568582E3849F9001859F300D1124309378
:101B200097052093960547855089849F9001859F4E
:101B3000300D11243093990520939805B0929F059C
:101B4000A0929E057092A1056092A0058114910457
:101B5000D1F090929B0580929A0570929D056092BB
:101B60009C05C114D10409F4A8C8D092A105C09263
:101B7000A005A3C830928B0520928A05E12C86012E
:101B80009501A50199CFB0929B05A0929A05D0929C
:101B90009D05C0929C0591C8A090AD05B090AE0582
:101BA000F5018285863008F487C811E025EC3DE90F
:101BB0004CE151E8C82ED12C0AE0812F90E0BC0105
:101BC0006E5F7F4F6C157D05CCF5660F771FF501B5
:101BD000E60FF71F83849484880F991FF501E80F9F
:101BE000F91F83859485089DD001099DB00D1124AE
:101BF000FC0163E0EE0FFF1F6A95E1F7AE17BF0728
:101C000088F0089FB001099F700D1124C401E3E022
:101C1000880F991FEA95E1F7E2E06817790718F055
:101C2000E1E001C0E0E063E971E080E091E00E9462
:101C30000C1A9B01AC012E271F5FBFCF209392058A
:101C400030939305409394055093950580E290E07E
:101C50009093AB058093AA0510928B0510928A058C
:101C60002BC842E050E068E372E08FEE93E00C9402
:101C70002302CF93DF93FC0101900020E9F7319715
:101C8000AF01481B590BBC018FEE93E00E94230269
:101C9000EC010E94310E8C0F9D1FDF91CF910895B2
:101CA000CF93DF93FC0144815581608171818FEE78
:101CB00093E00E942302EC010E94310E8C0F9D1FC5
:101CC000DF91CF910895FC0180819181009711F0FF
:101CD0000C94631960E070E0CB010895FC0124814D
:101CE0003581232B39F421E0FB018081882349F0E1
:101CF00020E007C0808191810E94721C21E0892B25
:101D0000B9F7822F08950F931F93CF93DF93EC01C0
:101D100088819981009759F02A813B8126173707DE
:101D200030F081E0DF91CF911F910F9108958B01E9
:101D30006F5F7F4F0E94AC1B009759F09983888397
:101D40001B830A832C813D81232B59F7FC011082D0
:101D5000E8CF80E0E7CFEF92FF920F931F93CF93EE
:101D6000DF936115710541F480E0DF91CF911F9100
:101D70000F91FF90EF90089541155105B1F07B014F
:101D8000EC010C811D81040F151FB8010E94830E08
:101D9000882351F3288139818C819D81B701820F7D
:101DA000931F0E947B1C1D830C8381E0DECFCF93A9
:101DB000DF93EC0188819981009711F00E94231B29
:101DC000198218821D821C821B821A82DF91CF9198
:101DD0000895EF92FF920F931F93CF93DF938C019F
:101DE0007B01EB0109900020E9F72197C61BD70B77
:101DF000BE010E94830E811109C0C801DF91CF91FD
:101E00001F910F91FF90EF900C94D70EF801D5839E
:101E1000C483B70180819181DF91CF911F910F9190
:101E2000FF90EF900C947B1C0F931F93CF93DF9345
:101E3000CDB7DEB762970FB6F894DEBF0FBECDBF49
:101E40008C01CB01F801118210821382128215825B
:101E500014824AE0BE016F5F7F4F0E948A19BE0163
:101E60006F5F7F4FC8010E94E90E62960FB6F8942B
:101E7000DEBF0FBECDBFDF91CF911F910F910895AF
:101E80000F931F93CF93DF93CDB7DEB7A1970FB614
:101E9000F894DEBF0FBECDBF8C01CB01BA01F801B3
:101EA00011821082138212821582148220E1AE0107
:101EB0004F5F5F4F0E94AA19BE016F5F7F4FC8013D
:101EC0000E94E90EA1960FB6F894DEBF0FBECDBFFB
:101ED000DF91CF911F910F910895CF93DF93EC0184
:101EE000FB0101900020E9F73197AF01461B570B2A
:101EF0000E94AB0E811103C0CE010E94D70ECE010D
:101F0000DF91CF910895CF93DF93EC01FB014481E2
:101F10005581608171810E94AB0E811103C0CE0199
:101F20000E94D70ECE01DF91CF910895EF92FF92DC
:101F30000F931F93CF93DF93EC017B0119821882DB
:101F40001B821A821D821C82FB0101900020E9F78E
:101F500031978F01061B170BB8010E94830E811168
:101F600009C0CE01DF91CF911F910F91FF90EF90AB
:101F70000C94D70E1D830C83B70188819981DF9162
:101F8000CF911F910F91FF90EF900C947B1CCF92FB
:101F9000DF92EF92FF920F931F93CF93DF936C0129
:101FA0007B018A014617570720F48F2D7A01062FEF
:101FB000182F6AE372E0C6010E94960FC091810556
:101FC000D0918205EC16FD06F8F40C171D0708F4F5
:101FD000E801E0917D05F0917E05EC0FFD1F108179
:101FE000108260917D0570917E056E0D7F1DC6018A
:101FF0006115710599F00E94E90E80917D0590911F
:102000007E05C80FD91F1883C601DF91CF911F919C
:102010000F91FF90EF90DF90CF9008950E94D70E20
:10202000ECCFFC0180819181009711F00C94231B6F
:1020300008958F929F92AF92BF92CF92DF92EF92CC
:10204000FF920F931F93CF93DF9300D000D000D067
:10205000CDB7DEB78C017B015A016AE372E00E94C2
:10206000960F6701F12CE12C450181E0881A910857
:10207000F601619171916F01CE0101960E94140FDA
:102080004D815E8169817A81C8010E94AB0ECE01CB
:1020900001960E9411108E149F0439F042E050E026
:1020A0006BE372E0C8010E94AB0EFFEFEF1AFF0A6C
:1020B000AE14BF04E9F6C80126960FB6F894DEBF49
:1020C0000FBECDBFDF91CF911F910F91FF90EF9089
:1020D000DF90CF90BF90AF909F908F9008951F9307
:1020E000CF93DF93EC01162F0E94F619181739F0E1
:1020F000612FCE01DF91CF911F910C94FE19DF91DA
:10210000CF911F910895EF92FF920F931F93CF935A
:10211000DF9300EB13E0D0E0C0E0F80111921192E0
:102120008F0160E0CE010E946F102196CC30D10566
:10213000A1F704ED13E0F801119211928F0160E014
:10214000CE010E946F102196C231D105A1F70CE09B
:1021500011E024E1E22EF12CF801E192F1928F01DD
:1021600064E1CE010E946F102196CE31D105A1F716
:1021700000E011E098E2E92EF12CF801E192F192F1
:102180008F0168E2CE010E946F102196C432D10502
:10219000A1F704E211E08EE1E82EF12CF801E192C2
:1021A000F1928F016EE1CE010E946F102196CA322A
:1021B000D105A1F78EE392E0DF91CF911F910F91AE
:1021C000FF90EF900C94390E0C94F619EF92FF9259
:1021D0000F931F93CF93DF9300D000D000D0CDB7E3
:1021E000DEB740EBE42E43E0F42E10E000E0C8013F
:1021F0000E94E41090E0833091050CF4A4C00E948A
:1022000083104CE050E060EB73E0CE0101960E9439
:102210001910CE0101960E94500ECE0101960E9427
:10222000111034EDE32E33E0F32E0CE010E0C80182
:102230000E94E41090E0853691050CF493C00E9452
:10224000831046E050E064ED73E0CE0101960E94F9
:102250001910CE0101960E94500ECE0101960E94E7
:1022600011102CE0E22E21E0F22E02E110E0C80174
:102270000E94E41090E0F701819391937F010F5F3A
:102280001F4F0E31110599F74CE050E06CE071E002
:10229000CE0101960E941910CE0101960E94500EA7
:1022A000CE0101960E94111090E0E92E91E0F92EE6
:1022B000C8010E94E41090E0F701819391937F019F
:1022C0000F5F1F4F0432110599F746E050E060E0C0
:1022D00071E0CE0101960E941910CE0101960E9474
:1022E000500ECE0101960E94111084E2E82E81E08A
:1022F000F82EC8010E94E41090E0F70181939193B9
:102300007F010F5F1F4F0A32110599F746E050E039
:1023100064E271E0CE0101960E941910CE0101968F
:102320000E94500ECE0101960E94111026960FB603
:10233000F894DEBF0FBECDBFDF91CF911F910F91FB
:10234000FF90EF900895F701819391937F01C80169
:1023500002960E94EC040F5F1F4F0C30110509F02C
:1023600046CF4FCFF701819391937F01C801029629
:102370000E94B8040F5F1F4F0231110509F057CFBB
:1023800060CF1F920F920FB60F9211242F933F939D
:102390008F939F93AF93BF938091E1039091E2035A
:1023A000A091E303B091E4033091E00323E0230F15
:1023B0002D3758F50196A11DB11D2093E0038093A0
:1023C000E1039093E203A093E303B093E4038091CD
:1023D000E5039091E603A091E703B091E80301962D
:1023E000A11DB11D8093E5039093E603A093E7033D
:1023F000B093E803BF91AF919F918F913F912F913F
:102400000F900FBE0F901F90189526E8230F02968D
:10241000A11DB11DD2CF1F920F920FB60F921124A2
:102420002F933F934F935F936F937F938F939F93DC
:10243000AF93BF93EF93FF938FEE93E00E94A102BF
:10244000FF91EF91BF91AF919F918F917F916F918C
:102450005F914F913F912F910F900FBE0F901F9062
:1024600018951F920F920FB60F9211242F938F93EE
:102470009F93EF93FF93E091FF03F091000480811D
:10248000E0910504F091060482FD1BC090818091CB
:1024900008048F5F8F7320910904821741F0E09147
:1024A0000804F0E0E151FC4F958F80930804FF9100
:1024B000EF919F918F912F910F900FBE0F901F90D2
:1024C00018958081F4CF1F920F920FB60F921124AE
:1024D0002F933F934F935F936F937F938F939F932C
:1024E000AF93BF93CF93EF93FF93E0918E04F0915E
:1024F0008F04C08180919004C823809191049091B1
:102500009204019649F08091910490919204019671
:10251000909392048093910480918C0481111DC04A
:10252000C1116EC0809191049091920485369105FD
:1025300078F0109295048091910490919204909378
:1025400098048093970481E08093960480938C0490
:10255000109292041092910453C080918C048130A7
:10256000A9F4CC2309F44CC0E09196048E0F80931B
:1025700096048091910490919204F0E0EE0FFF1F79
:10258000E457FB4F9487838782E0E0CF80918C04EF
:10259000823009F04FC0C11122C0E091960481E061
:1025A000E03768F08093950483E080938C04E09199
:1025B0009304F0919404309759F20995C9CF8E0F86
:1025C000809396048091910490919204F0E0EE0F34
:1025D000FF1FE457FB4F9487838781E0B7CF80913B
:1025E0009104909192048536910550F083E0809398
:1025F0008C04E0919304F0919404309709F00995CC
:1026000080918405813021F4C11180E00E943E0553
:10261000FF91EF91CF91BF91AF919F918F917F915A
:102620006F915F914F913F912F910F900FBE0F903F
:102630001F90189580918C04833011F7C111E0CF61
:1026400087CFEF92FF920F931F93CF93DF93EC010D
:10265000F62F8A01790190E080E030E0E0E0DE01D1
:10266000AE0FB11D2C91222341F0320F2E9F800D11
:10267000911D11241C92FE1315C0332399F0532F82
:102680005695850F911D632F70E00E946D1ADE0133
:10269000A60FB11D3C93D8013C9131110EC06C9333
:1026A00090E080E0EF5FFE17D0F681E0DF91CF9100
:1026B0001F910F91FF90EF900895D7013C91332324
:1026C00071F380E0F3CFEFEEF3E01382128288EE35
:1026D00093E0A0E0B0E084839583A683B7838AE289
:1026E00092E09183808385EC90E09587848784ECE9
:1026F00090E09787868780EC90E0918B808B81ECCF
:1027000090E0938B828B82EC90E0958B848B86ECAF
:1027100090E0978B868B118E128E138E148E8CE820
:1027200094E09093AE058093AD0580E00E94DE01B9
:1027300010928305109285056AE372E08DE795E0BB
:102740000E94960F67E472E087E795E00C94960F7D
:10275000CF93DF93CDB7DEB765970FB6F894DEBFA2
:102760000FBECDBF789484B5826084BD84B581608E
:1027700084BD85B5826085BD85B5816085BD80914C
:102780006E00816080936E001092810080918100C4
:1027900082608093810080918100816080938100BC
:1027A000809180008160809380008091B10084607E
:1027B0008093B1008091B00081608093B0008091DF
:1027C0007A00846080937A0080917A00826080939E
:1027D0007A0080917A00816080937A0080917A00FB
:1027E000806880937A001092C100E091FF03F0911D
:1027F000000482E08083E091FB03F091FC031082EF
:10280000E091FD03F091FE038FEC808310920704AA
:10281000E0910304F091040486E08083E0910104D8
:10282000F0910204808180618083E0910104F09145
:102830000204808188608083E0910104F0910204A9
:10284000808180688083E0910104F091020480819E
:102850008F7D808381E592E00E94390E87E795E0C5
:102860000E94500E0E94E61050E0252E50E0352EBA
:102870008FEE93E00E948102181619060CF0DBC25D
:102880008FEE93E00E945F028A3009F0C8C245E0F3
:1028900050E070E060E0CE0101960E94C70F69E54C
:1028A00072E0CE0101960E946E0E182FCE010196A5
:1028B0000E941110112309F4F6C047E050E065E0D2
:1028C00070E0CE0101960E94C70F6FE572E0CE0165
:1028D00001960E946E0E182FCE0101960E941110D3
:1028E000112309F471C049E050E067E070E0CE01C7
:1028F00001960E94C70FCE0101960E94630E6B01E4
:10290000CE0101960E9411104091810550918205DF
:102910006AE070E0CE0101960E94C70FCE010196D9
:102920000E94630E5B01CE0101960E941110C60148
:1029300002978C30910528F082E692E00E94390ED1
:102940003CC0FC01EE0FFF1FE055FC4FA082B1829E
:102950006A2D0E946F10C6010E94EC046A2D7B2D27
:10296000CE0101960E94140FB601CE0107960E9477
:10297000140F61E872E0CE010D960E94960FBE0121
:10298000695F7F4FCE010D960E94830F6EE872E063
:102990000E946D0FBE016F5F7F4F0E94830F0E94E8
:1029A000500ECE010D960E941110CE0107960E9486
:1029B0001110CE0101960E9411106AE372E08DE7BA
:1029C00095E00E94E90E54CF47E050E065E070E0EA
:1029D000CE0101960E94C70F61E573E0CE0101961A
:1029E0000E946E0E182FCE0101960E941110112325
:1029F00021F349E050E067E070E0CE0101960E94CB
:102A0000C70FCE0101960E94630E6B01CE010196A5
:102A10000E94111040918105509182056AE070E09A
:102A2000CE0101960E94C70FCE0101960E94630E4F
:102A3000B62EA72ECE0101960E941110C601029754
:102A40008C30910508F078CF0B2D1A2D0F3F110512
:102A500021F01CF08CE992E071CF880F991FFC01E6
:102A6000E45FFE4F11830083C60140966B2D0E94E8
:102A70006F10B801CE0101960E94140FB601CE016D
:102A800007960E94140F61E872E0CE010D960E9435
:102A9000960FBE01695F7F4FCE010D960E94830F96
:102AA00065EC72E075CF45E050E070E060E0CE018B
:102AB00001960E94C70F6AED72E0CE0101960E9456
:102AC0006E0E182FCE0101960E941110112309F4E9
:102AD0002AC147E050E065E070E0CE0101960E9417
:102AE000C70F6FE572E0CE0101960E946E0E182F9F
:102AF000CE0101960E941110112309F447C049E04C
:102B000050E067E070E0CE0101960E94C70FCE0151
:102B100001960E94630E6B01CE0101960E94111076
:102B200040918105509182056AE070E0CE010196E6
:102B30000E94C70FCE0101960E94630E5B01CE0179
:102B400001960E94111026E0C216D10408F0F4CEBE
:102B5000F601EE0FFF1FEC52FC4FA082B182C601BE
:102B60000C966A2D0E946F10C6010E960E94B80442
:102B70006A2D7B2DCE0101960E94140FB601CE0165
:102B800007960E94140F60EE72E0F5CE47E050E029
:102B900065E070E0CE0101960E94C70F61E573E029
:102BA000CE0101960E946E0E182FCE0101960E9452
:102BB0001110112309F44AC049E050E067E070E0C9
:102BC000CE0101960E94C70FCE0101960E94630EAE
:102BD0006B01CE0101960E94111040918105509128
:102BE00082056AE070E0CE0101960E94C70FCE0117
:102BF00001960E94630EB62EA72ECE0101960E946A
:102C0000111036E0C316D10408F096CE0B2D1A2D04
:102C10000F3F110511F00CF01DCFF601EE0FFF1F55
:102C2000E050FF4F11830083C6014E966B2D0E942A
:102C30006F10B801CE0101960E94140FB601CE01AB
:102C400007960E94140F60EE72E01FCF47E050E03D
:102C500065E070E0CE0101960E94C70F6CEE72E055
:102C6000CE0101960E946E0E182FCE0101960E9491
:102C70001110112309F4A1CE49E050E067E070E0A3
:102C8000CE0101960E94C70FCE0101960E94630EED
:102C90006B01CE0101960E94111040918105509167
:102CA00082056AE070E0CE0101960E94C70FCE0156
:102CB00001960E94630EB62EA72ECE0101960E94A9
:102CC000111046E0C416D10408F036CE0B2D1A2D93
:102CD0000F3F110511F00CF0BDCEF601EE0FFF1FF6
:102CE000EC5DFE4F11830083C60184966B2D0E941C
:102CF0006F10B801CE0101960E94140FB601CE01EB
:102D000007960E94140F60EE72E0CE010D960E94AD
:102D1000960FBE01695F7F4FCE010D960E94830F13
:102D20006FEE72E035CE6DE073E08DE795E00E94C6
:102D30006E0E882319F00E94E6103FCE64E173E026
:102D40008DE795E00E946E0E882309F44DC04CE09B
:102D500050E060EB73E0CE0101960E941910CE01A5
:102D600001960E94500ECE0101960E94111046E07D
:102D700050E064ED73E0CE0101960E941910CE017F
:102D800001960E94500ECE0101960E9411104CE057
:102D900050E06CE071E0CE0101960E941910CE0166
:102DA00001960E94500ECE0101960E94111046E03D
:102DB00050E060E071E0CE0101960E941910CE0152
:102DC00001960E94500ECE0101960E94111046E01D
:102DD00050E064E271E0CE0101960E941910CE012C
:102DE00001960E94500EE5CD6EE372E08DE795E00E
:102DF0000E946E0E882319F00E948310DECD60E2DF
:102E000073E08DE795E00E946E0E882329F087E736
:102E100095E00E94500ED1CD88E293E08FCD89835A
:102E20001A8241E050E0BE016F5F7F4F8DE795E071
:102E30000E94AB0E1DCD10EBC12E13E0D12E02E08F
:102E400010E0F601819191916F01019709F07DC029
:102E5000802F0E944B01F1E0FB8B8130910509F03E
:102E60001B8A980126573C4F3D8B2C8BF901208102
:102E7000FB89F21709F469C09801220F331F220F52
:102E8000331FA9014C5A5C4F7A01FA0140805180EE
:102E9000628073802FB7F8944091E1035091E20370
:102EA0006091E3037091E4032FBF44155505660557
:102EB0007705A4F0F801EE0FFF1FE85FFE4F80805A
:102EC0009180092C000CAA08BB08480C591C6A1CEC
:102ED0007B1C4416550666067706BCF5B8010197BB
:102EE00009F4C3C1CE0101960E94140F6BE373E095
:102EF000CE0107960E94960FBE016F5F7F4FCE01F5
:102F000007960E94830F63E473E00E946D0F0E9496
:102F1000500ECE0107960E941110CE0101960E941C
:102F200011102FB7F8948091E1039091E203A091E2
:102F3000E303B091E4032FBFF70180839183A28361
:102F4000B3832B89EC89FD892083F6013297808138
:102F50009181029709F03FC00E941A068823D9F197
:102F6000409192055091930560919405709195055B
:102F7000CE0101960E94400FB801CE0107960E9433
:102F8000140F6DE473E0CE010D960E94960FBE0102
:102F9000695F7F4FCE010D960E94830F6CE372E054
:102FA0000E946D0FBE016F5F7F4F0E94830F0E94D2
:102FB000500ECE010D960E941110CE0107960E9470
:102FC0001110CE0101960E94111080918C04833063
:102FD00011F410928C040F5F1F4F0E30110509F091
:102FE00030CF74EDC72E73E0D72EE8EC6E2EE3E001
:102FF0007E2EF601819191916F01019709F05BC0DE
:10300000802F0E944B014C01AA24A394B12C01975C
:1030100011F0B12CA12CC801880F991F9C012455D7
:103020003C4F7901F90180819181A816B90609F414
:1030300042C0C8010E9430038823E9F1B801CE01E3
:1030400001968A94892809F424C10E94140F6BE325
:1030500073E0CE0107960E94960FBE016F5F7F4F0F
:10306000CE0107960E94830F63E473E00E946D0F08
:103070000E94500ECE0107960E941110CE010196BB
:103080000E9411102FB7F8948091E1039091E20310
:10309000A091E303B091E4032FBFF801EE0FFF1FEF
:1030A000EE0FFF1FE05AFC4F80839183A283B3830E
:1030B000F701B182A082F301819191913F010297C2
:1030C00009F03FC00E941A068823D9F14091920569
:1030D000509193056091940570919505CE010196EC
:1030E0000E94400FB801CE0107960E94140F6DE4B4
:1030F00073E0CE010D960E94960FBE01695F7F4F6F
:10310000CE010D960E94830F6CE372E00E946D0F5A
:10311000BE016F5F7F4F0E94830F0E94500ECE0151
:103120000D960E941110CE0107960E941110CE013B
:1031300001960E94111080918C04833011F410923A
:103140008C04F601329780819181889709F07BC0C9
:10315000C8010E943003882309F475C082EF800FF4
:10316000806480937C0080917A00806480937A00F0
:1031700080917A0086FDFCCFA0907800B090790015
:10318000C801880F991F4C97FC01EC5DFE4F208110
:103190003181AC0148535C4F7A01FA018081918101
:1031A000A901480F591FA416B50634F4821B930BCE
:1031B0008A159B050CF447C0B501CE0101960E940B
:1031C000140FB801CE0107960E94140F64E573E056
:1031D000CE010D960E94960FBE01695F7F4FCE0112
:1031E0000D960E94830F6CE372E00E946D0FBE018A
:1031F0006F5F7F4F0E94830F0E94500ECE010D968D
:103200000E941110CE0107960E941110CE01019666
:103210000E9411102FB7F8948091E1039091E2037E
:10322000A091E303B091E4032FBFF801EE0FFF1F5D
:10323000EE0FFF1FE05AFC4F80839183A283B3837C
:10324000F701B182A0820F5F1F4F0431110509F011
:10325000D0CE2114310409F40BCB0E948D028823B7
:1032600009F402CB0E940000FFCACE0101960E9421
:10327000140F6BE373E0CE0107960E94960FBE0118
:103280006F5F7F4FCE0107960E94830F69E473E062
:103290003CCE0E94140F6BE373E0CE0107960E94B0
:1032A000960FBE016F5F7F4FCE0107960E94830F7E
:1032B00069E473E0DBCE87E795E00E9411108DE7AB
:1032C00095E00C9411101F93FC0199278827BC01ED
:1032D000E89411911032E9F3193010F01E30C8F360
:1032E0001B3251F01D3249F4689406C00E949519B2
:1032F000610F711D811D911D119110531A30B0F392
:103300003EF490958095709561957F4F8F4F9F4FBC
:103310001F910895BB274A3031F4992322F4BDE26E
:10332000909581959F4F0C94CD19592F482F372F89
:10333000262F660F771F881F991F660F771F881F1C
:10334000991F620F731F841F951F660F771F881FB9
:10335000991F0895BB27FA01A62F621771058105F1
:103360009105330B30FB66F0AA27660F771F881F85
:10337000991FAA1FA21710F0A21B63953850A9F736
:10338000A05DAA3308F0A95DA19336F7B111B193FE
:103390001082CA010C94E619BB27FB015527AA2706
:1033A000880F991FAA1FA41710F0A41B83955051D2
:1033B000B9F7A05DAA3308F0A95DA193009779F74A
:1033C000B111B1931192CB010C94E619DC01FC010F
:1033D000672F71917723E1F7329704C07C916D9349
:1033E00070836291AE17BF07C8F30895F999FECFB5
:1033F00092BD81BDF89A992780B50895262FF99935
:10340000FECF1FBA92BD81BD20BD0FB6F894FA9AC7
:10341000F99A0FBE01960895DB018F939F930E9446
:103420001C1ABF91AF91A29F800D911DA39F900D7B
:10343000B29F900D112408950E945E1AA59F900DD1
:10344000B49F900DA49F800D911D112408952F927B
:103450003F924F925F926F927F928F929F92AF9224
:10346000BF92CF92DF92EF92FF920F931F93CF9371
:10347000DF93CDB7DEB7CA1BDB0B0FB6F894DEBF08
:103480000FBECDBF09942A88398848885F846E842E
:103490007D848C849B84AA84B984C884DF80EE8078
:1034A000FD800C811B81AA81B981CE0FD11D0FB681
:1034B000F894DEBF0FBECDBFED010895A29FB0010D
:1034C000B39FC001A39F700D811D1124911DB29F58
:1034D000700D811D1124911D0895AA1BBB1B51E184
:1034E00007C0AA1FBB1FA617B70710F0A61BB70B74
:1034F000881F991F5A95A9F780959095BC01CD0119
:103500000895EE0FFF1F0590F491E02D09940F939D
:103510001F93CF93DF938230910510F482E090E007
:10352000E091BC05F091BD0530E020E0B0E0A0E006
:10353000309799F42115310509F44AC0281B390B3D
:1035400024303105D8F58A819B816115710589F197
:10355000FB0193838283FE0111C04081518102816E
:10356000138148175907E0F04817590799F4109745
:1035700061F012960C93129713961C933296CF011A
:10358000DF91CF911F910F9108950093BC05109387
:10359000BD05F4CF2115310551F04217530738F01E
:1035A000A901DB019A01BD01DF01F801C1CFEF01E3
:1035B000F9CF9093BD058093BC05CDCFFE01E20FFE
:1035C000F31F819391932250310939832883D7CFF8
:1035D0002091BA053091BB05232B41F420912202A2
:1035E000309123023093BB052093BA05209120022D
:1035F000309121022115310541F42DB73EB740919C
:10360000240250912502241B350BE091BA05F0915C
:10361000BB05E217F307A0F42E1B3F0B2817390751
:1036200078F0AC014E5F5F4F2417350748F04E0F1E
:103630005F1F5093BB054093BA05819391939FCF31
:10364000F0E0E0E09CCFCF93DF930097E9F0FC013E
:10365000329713821282A091BC05B091BD05ED0195
:1036600030E020E01097A1F420813181820F931F78
:103670002091BA053091BB052817390709F061C0C0
:10368000F093BB05E093BA05DF91CF910895EA016D
:10369000CE17DF07E8F54A815B819E014115510590
:1036A000B1F7E901FB83EA8349915991C40FD51F12
:1036B000EC17FD0761F4808191810296840F951FBC
:1036C000E90199838883828193819B838A83F0E0D7
:1036D000E0E012968D919C9113970097B9F52D918A
:1036E0003C911197CD010296820F931F2091BA054C
:1036F0003091BB052817390739F6309751F51092EC
:10370000BD051092BC05B093BB05A093BA05BCCF14
:10371000D383C28340815181840F951FC817D90775
:1037200061F44E5F5F4F88819981480F591F518323
:1037300040838A819B81938382832115310509F01F
:10374000B0CFF093BD05E093BC059ECFFD01DC0139
:10375000C0CF13821282D7CFB0E0A0E0E2EBFBE152
:103760000C94291A8C01009751F4CB010E94871AFE
:103770008C01C801CDB7DEB7E0E10C94451AFC011D
:10378000E60FF71F9C0122503109E217F30708F4F6
:103790009DC0D901CD91DC911197C617D70798F03C
:1037A000C530D10530F3CE0104978617970708F38B
:1037B000C61BD70B2297C193D1936D937C93CF01F6
:1037C0000E94231BD6CF5B01AC1ABD0A4C018C0EA4
:1037D0009D1EA091BC05B091BD05512C412CF12C32
:1037E000E12C109731F58091BA059091BB058815B1
:1037F000990509F05CC04616570608F058C080913C
:10380000200290912102009741F48DB79EB740911C
:10381000240250912502841B950BE817F90708F044
:1038200055C0F093BB05E093BA05F901718360833D
:10383000A0CF8D919C91119712966C901297139630
:103840007C901397A815B90559F56C0142E0C40E98
:10385000D11CCA14DB0420F1AC014A195B09DA015E
:103860001296159780F06282738251834083D9014A
:103870006D937C93E114F10471F0D7011396FC93DE
:10388000EE93129776CF22968C0F9D1FF9019183AC
:103890008083F301EFCFF093BD05E093BC0569CFC2
:1038A0004816590608F42C017D01D3019ACFCB01AB
:1038B0000E94871A7C01009749F0AE01B8010E946E
:1038C000691CC8010E94231B870153CF10E000E050
:1038D00050CFFB01DC0102C001900D9241505040DD
:1038E000D8F70895FB01DC018D910190801901103A
:1038F000D9F3990B0895FB01DC0101900D92002092
:10390000E1F7089510E0C2E6D0E004C0FE010E9495
:0E391000811A2196C336D107C9F7F894FFCF6C
:10391E002800280028002800280028001400140081
:10392E0014001400140014001400140014001400E9
:10393E0014001400190019001900190019001900BB
:10394E0006002628236810F4012C06F401260280B6
:10395E006E000A06050026E02070100E022A060EE2
:10396E00020E02004100000013002680118011306B
:10397E0002900630023002006E00F0051D0026385F
:10398E00081C040E022A060E020E0200320000006F
:10399E001C0026220B220BEE026608EE02EE0280BF
:1039AE006E0000001A00269E0002049E0029029E50
:1039BE00000701006E000000190026F603BC050882
:1039CE0002BC050802D401004B0000001B00261F9C
:1039DE00015D033E023E021F015D03806E0000008A
:1039EE0017002860095802B0045802580258020005
:1039FE002D00000004002604010C0304011C070422
:103A0E00010C03006E0000000C0025800DC006B0F6
:103A1E00011005B001B00100820000000800260070
:103A2E002380113002900630023002006E000A062A
:103A3E000000BE05800000000000C30223025002F9
:103A4E00100381025F0273020D0A002C20004D4507
:103A5E004D524553455400554E4F20302E312E3089
:103A6E00006D696D6163726F004450494E200053C2
:103A7E0020004D616C666F72656420636F6D6D61C1
:103A8E006E642E20496E76616C69642070696E2EAC
:103A9E00004449474954414C2050494E200020498A
:103AAE0053204E4F57204D4F444520004D616C66BC
:103ABE006F726D656420636F6D6D616E642E205440
:103ACE00696D652061626F7665206D6178202832A0
:103ADE003535292E00204E4F57204841532054494A
:103AEE004D454F5554204F4620004150494E200021
:103AFE00414E414C4F472050494E20005620002049
:103B0E004841532056414C5545204348414E474568
:103B1E00204D494E494D554D204F462000454550AC
:103B2E00524F4D00434F4E46494753544154450062
:103B3E0056455253494F4E004D616C666F726D651E
:103B4E006420636F6D6D616E642E00425554544F48
:103B5E004E200020444F574E0020555000495247EA
:0C3B6E0045542000504F54454E54200098
:00000001FF
