:020000040000FA
:100000000C9435000C945D000C945D000C945D0024
:100010000C945D000C945D000C945D000C945D00EC
:100020000C945D000C945D000C945D000C945D00DC
:100030000C945D000C945D000C945D000C945D00CC
:100040000C94B0020C945D000C9420030C94FA0202
:100050000C945D000C945D000C945D000C945D00AC
:100060000C945D000C945D00690411241FBECFEF59
:10007000D8E0DEBFCDBF22E0A0E4B1E001C01D9218
:10008000AE30B207E1F711E0A0E0B1E0E4E2FEE05B
:1000900002C005900D92A034B107D9F710E0C5E376
:1000A000D0E004C02197FE010E941805C433D10797
:1000B000C9F70E9452030C9410070C940000AF92F1
:1000C000BF92CF92DF92EF92FF920F931F93CF9345
:1000D000DF936C017B018B01040F151FEB015E01A7
:1000E000AE18BF08C017D10759F06991D601ED913C
:1000F000FC910190F081E02DC6010995892B79F7DB
:10010000C501DF91CF911F910F91FF90EF90DF908C
:10011000CF90BF90AF900895FC01538D448D252F53
:1001200030E0842F90E0821B930B541710F0CF9691
:10013000089501970895FC01918D828D981761F0C3
:10014000A28DAE0FBF2FB11D5D968C91928D9F5FDA
:100150009F73928F90E008958FEF9FEF0895FC01B9
:10016000918D828D981731F0828DE80FF11D858D6C
:1001700090E008958FEF9FEF0895FC01918D228DFF
:10018000892F90E0805C9F4F821B91098F73992784
:1001900008958DE691E00E94BD0021E0892B09F4CD
:1001A00020E0822F089580E090E0892B29F00E94C2
:1001B000C90081110C9400000895FC01A48DA80FC2
:1001C000B92FB11DA35ABF4F2C91848D90E0019699
:1001D0008F739927848FA689B7892C93A089B189B9
:1001E0008C91837080648C93938D848D981306C05A
:1001F0000288F389E02D80818F7D80830895EF92BE
:10020000FF920F931F93CF93DF93EC0181E0888FD0
:100210009B8D8C8D98131AC0E889F989808185FFA0
:1002200015C09FB7F894EE89FF896083E889F98942
:1002300080818370806480839FBF81E090E0DF9144
:10024000CF911F910F91FF90EF900895F62E0B8D97
:1002500010E00F5F1F4F0F731127E02E8C8D8E1152
:100260000CC00FB607FCFACFE889F989808185FFB9
:10027000F5CFCE010E94DD00F1CFEB8DEC0FFD2F0D
:10028000F11DE35AFF4FF0829FB7F8940B8FEA8974
:10029000FB8980818062CFCFCF93DF93EC01888D83
:1002A0008823B9F0AA89BB89E889F9898C9185FDF1
:1002B00003C0808186FD0DC00FB607FCF7CF8C917F
:1002C00085FFF2CF808185FFEDCFCE010E94DD005A
:1002D000E9CFDF91CF91089542E050E068E171E00D
:1002E0008DE691E00C945F00CF93DF93FC01448195
:1002F0005581608171818DE691E00E945F00EC0183
:100300000E946C018C0F9D1FDF91CF910895CF93B8
:10031000DF93FC0101900020E9F73197AF01481B02
:10032000590BBC018DE691E00E945F00EC010E9438
:100330006C018C0F9D1FDF91CF9108950F931F9338
:10034000CF93DF93EC0188819981009759F02A813E
:100350003B812617370730F081E0DF91CF911F9165
:100360000F9108958B016F5F7F4F0E9443060097A6
:1003700059F0998388831B830A832C813D81232B29
:1003800059F7FC011082E8CF80E0E7CFFC018081C3
:100390009181009711F00C94BA0508952F923F9225
:1003A0004F925F926F927F928F929F92AF92BF9285
:1003B000CF92DF92EF92FF920F931F93CF93DF9331
:1003C000CDB7DEB768970FB6F894DEBF0FBECDBFCE
:1003D0008C017B013A01FC0111821082138212828E
:1003E0001582148270E060E00E949E01F801208175
:1003F00031818111A6C02115310519F0C9010E9472
:10040000BA05F801118210821582148213821282B9
:100410001701D12CC12CCE0101965C01230191E082
:10042000491A5108F101819191911F011C8A1B8A7F
:100430001E8A1D8A188E1F8A4AE0B5010E94960402
:10044000F50101900020E9F731977F01EA18FB08D8
:10045000B701CE0143960E949E012B893C898111F0
:1004600078C02115310519F0C9010E94BA051C8A0E
:100470001B8A188E1F8A1E8A1D8A8B889C8881146D
:100480009104E9F0EF88F88CE114F104C1F0F8016F
:1004900084819581E80EF91EB701C8010E949E0172
:1004A000882369F0F8012081318184819581B4012C
:1004B000820F931F0E940907F801F582E482CE01A2
:1004C00043960E94C6014C145D04D1F0F801E4800B
:1004D000F580F2E0EF0EF11CB701C8010E949E0109
:1004E000882371F0F80120813181848195816BE14D
:1004F00071E0820F931F0E940907F801F582E482E0
:10050000FFEFCF1ADF0A6C147D0409F08BCFC8010E
:1005100068960FB6F894DEBF0FBECDBFDF91CF91C6
:100520001F910F91FF90EF90DF90CF90BF90AF9011
:100530009F908F907F906F905F904F903F902F9003
:100540000895158214826AE171E0C9010E940907C9
:100550005FCFF88EEF8AB501C9010E9409078DCFE0
:100560001F920F920FB60F9211242F933F938F93E8
:100570009F93AF93BF938091690190916A01A0917D
:100580006B01B0916C013091680123E0230F2D378E
:1005900058F50196A11DB11D209368018093690152
:1005A00090936A01A0936B01B0936C0180916401F8
:1005B00090916501A0916601B09167010196A11D1E
:1005C000B11D8093640190936501A0936601B0937F
:1005D0006701BF91AF919F918F913F912F910F90A4
:1005E0000FBE0F901F90189526E8230F0296A11DAD
:1005F000B11DD2CF1F920F920FB60F9211242F93DD
:100600003F934F935F936F937F938F939F93AF939A
:10061000BF93EF93FF938DE691E00E94DD00FF9181
:10062000EF91BF91AF919F918F917F916F915F916A
:100630004F913F912F910F900FBE0F901F901895E3
:100640001F920F920FB60F9211242F938F939F93A7
:10065000EF93FF93E0917D01F0917E018081E09125
:100660008301F091840182FD1BC0908180918601FD
:100670008F5F8F7320918701821741F0E09186018F
:10068000F0E0E359FE4F958F80938601FF91EF9143
:100690009F918F912F910F900FBE0F901F901895E3
:1006A0008081F4CFCF93DF9300D000D000D0CDB7BE
:1006B000DEB7789484B5826084BD84B5816084BDE2
:1006C00085B5826085BD85B5816085BD80916E00F0
:1006D000816080936E001092810080918100826021
:1006E000809381008091810081608093810080915E
:1006F00080008160809380008091B100846080934D
:10070000B1008091B00081608093B00080917A0048
:10071000846080937A0080917A00826080937A006E
:1007200080917A00816080937A0080917A0080685D
:1007300080937A001092C100E0917D01F0917E01DA
:1007400082E08083E0917901F0917A011082E0915A
:100750007B01F0917C018FEC808310928501E09108
:100760008101F091820186E08083E0917F01F09128
:100770008001808180618083E0917F01F091800120
:10078000808188608083E0917F01F0918001808189
:1007900080688083E0917F01F091800180818F7D6E
:1007A00080838EE191E00E9487018DE291E00E94BA
:1007B00087019CE4E92E91E0F92E670110E000E04A
:1007C000C8010E94CB0490E0823091050CF46BC00C
:1007D00010E000E0F701119211927F01C8010E9420
:1007E000CB04882321F060E0C8010E94D3040F5F8E
:1007F0001F4F0C30110571F787E391E00E948701CC
:100800004CE050E06CE471E0CE0101960E94CE0114
:10081000CE0101960E947401CE0101960E94C6018C
:1008200088E5E82E81E0F82E67010CE010E0C801B1
:100830000E94CB0490E0823091050CF43FC00CE0A4
:1008400010E0F701119211927F01C8010E94CB04C0
:10085000882321F060E0C8010E94D3040F5F1F4F7E
:100860000231110571F787E391E00E94870146E0AC
:1008700050E060E471E0CE0101960E94CE01CE010D
:1008800001960E947401CE0101960E94C60100E00B
:1008900010E001151105E9F30E94C9008823C9F38E
:1008A0000E940000F6CFF601819391936F010F5FD4
:1008B0001F4F0C30110509F083CFA2CFF6018193B1
:1008C00091936F010F5F1F4F0231110509F0AFCFF8
:1008D000CECFEDE6F1E01382128288EE93E0A0E045
:1008E000B0E084839583A683B7838AE091E0918307
:1008F000808385EC90E09587848784EC90E09787EF
:10090000868780EC90E0918B808B81EC90E0938BDC
:10091000828B82EC90E0958B848B86EC90E0978BB9
:10092000868B118E128E138E148E0895BB274A303B
:1009300031F4992322F4BDE2909581959F4F0C9458
:10094000A204BB27FB015527AA27880F991FAA1FBE
:10095000A41710F0A41B83955051B9F7A05DAA33DA
:1009600008F0A95DA193009779F7B111B1931192A5
:10097000CB010C94BB04DC01FC01672F7191772340
:10098000E1F7329704C07C916D9370836291AE174A
:10099000BF07C8F30895F999FECF92BD81BDF89ABB
:1009A000992780B50895262FF999FECF1FBA92BDD9
:1009B00081BD20BD0FB6F894FA9AF99A0FBE019640
:1009C00008952F923F924F925F926F927F928F92F3
:1009D0009F92AF92BF92CF92DF92EF92FF920F93CE
:1009E0001F93CF93DF93CDB7DEB7CA1BDB0B0FB6D8
:1009F000F894DEBF0FBECDBF09942A883988488895
:100A00005F846E847D848C849B84AA84B984C8842A
:100A1000DF80EE80FD800C811B81AA81B981CE0F21
:100A2000D11D0FB6F894DEBF0FBECDBFED01089506
:100A3000EE0FFF1F0590F491E02D09940F931F9383
:100A4000CF93DF938230910510F482E090E0E09143
:100A50000C02F0910D0230E020E0B0E0A0E0309711
:100A600099F42115310509F44AC0281B390B2430AB
:100A70003105D8F58A819B816115710589F1FB01EA
:100A800093838283FE0111C04081518102811381D1
:100A900048175907E0F04817590799F4109761F083
:100AA00012960C93129713961C933296CF01DF91F6
:100AB000CF911F910F91089500930C0210930D0296
:100AC000F4CF2115310551F04217530738F0A90131
:100AD000DB019A01BD01DF01F801C1CFEF01F9CFC0
:100AE00090930D0280930C02CDCFFE01E20FF31F15
:100AF000819391932250310939832883D7CF209154
:100B00000A0230910B02232B41F420910201309113
:100B1000030130930B0220930A02209100013091CF
:100B200001012115310541F42DB73EB74091040173
:100B300050910501241B350BE0910A02F0910B0244
:100B4000E217F307A0F42E1B3F0B2817390778F0A4
:100B5000AC014E5F5F4F2417350748F04E0F5F1F03
:100B600050930B0240930A02819391939FCFF0E040
:100B7000E0E09CCFCF93DF930097E9F0FC01329740
:100B800013821282A0910C02B0910D02ED0130E0AF
:100B900020E01097A1F420813181820F931F2091D2
:100BA0000A0230910B022817390709F061C0F0934F
:100BB0000B02E0930A02DF91CF910895EA01CE176C
:100BC000DF07E8F54A815B819E0141155105B1F7C8
:100BD000E901FB83EA8349915991C40FD51FEC17B2
:100BE000FD0761F4808191810296840F951FE901D0
:100BF00099838883828193819B838A83F0E0E0E0FC
:100C000012968D919C9113970097B9F52D913C9177
:100C10001197CD010296820F931F20910A02309105
:100C20000B022817390739F6309751F510920D024B
:100C300010920C02B0930B02A0930A02BCCFD38394
:100C4000C28340815181840F951FC817D90761F471
:100C50004E5F5F4F88819981480F591F51834083B0
:100C60008A819B81938382832115310509F0B0CF5E
:100C7000F0930D02E0930C029ECFFD01DC01C0CF8A
:100C800013821282D7CFB0E0A0E0E9E4F6E00C9442
:100C9000E3048C01009751F4CB010E941E058C01E6
:100CA000C801CDB7DEB7E0E10C94FF04FC01E60F0C
:100CB000F71F9C0122503109E217F30708F49DC089
:100CC000D901CD91DC911197C617D70798F0C5309F
:100CD000D10530F3CE0104978617970708F3C61B9A
:100CE000D70B2297C193D1936D937C93CF010E9430
:100CF000BA05D6CF5B01AC1ABD0A4C018C0E9D1E05
:100D0000A0910C02B0910D02512C412CF12CE12C40
:100D1000109731F580910A0290910B028815990580
:100D200009F05CC04616570608F058C080910001D3
:100D300090910101009741F48DB79EB74091040155
:100D400050910501841B950BE817F90708F055C071
:100D5000F0930B02E0930A02F90171836083A0CF44
:100D60008D919C91119712966C90129713967C908E
:100D70001397A815B90559F56C0142E0C40ED11CB2
:100D8000CA14DB0420F1AC014A195B09DA0112969E
:100D9000159780F06282738251834083D9016D93ED
:100DA0007C93E114F10471F0D7011396FC93EE9358
:100DB000129776CF22968C0F9D1FF9019183808325
:100DC000F301EFCFF0930D02E0930C0269CF4816C8
:100DD000590608F42C017D01D3019ACFCB010E9462
:100DE0001E057C01009749F0AE01B8010E94000782
:100DF000C8010E94BA05870153CF10E000E050CF30
:100E0000FB01DC0102C001900D9241505040D8F727
:100E10000895FB01DC0101900D920020E1F7089597
:100E2000F894FFCF00000E02800000000000FF00D9
:100E30005F008C004C01BD009B00AF000D0A002C30
:100E4000200041726475696E6F204D6163726F732B
:100E500000554E4F20302E302E31004D454D52451D
:040E600053455400A2
:107E0000112484B714BE81FFF0D085E080938100F7
:107E100082E08093C00088E18093C10086E0809377
:107E2000C20080E18093C4008EE0C9D0259A86E02C
:107E300020E33CEF91E0309385002093840096BBD3
:107E4000B09BFECF1D9AA8958150A9F7CC24DD24C4
:107E500088248394B5E0AB2EA1E19A2EF3E0BF2EE7
:107E6000A2D0813461F49FD0082FAFD0023811F036
:107E7000013811F484E001C083E08DD089C08234E0
:107E800011F484E103C0853419F485E0A6D080C0E4
:107E9000853579F488D0E82EFF2485D0082F10E0AE
:107EA000102F00270E291F29000F111F8ED06801E7
:107EB0006FC0863521F484E090D080E0DECF843638
:107EC00009F040C070D06FD0082F6DD080E0C81688
:107ED00080E7D80618F4F601B7BEE895C0E0D1E017
:107EE00062D089930C17E1F7F0E0CF16F0E7DF06D8
:107EF00018F0F601B7BEE89568D007B600FCFDCFD4
:107F0000A601A0E0B1E02C9130E011968C91119780
:107F100090E0982F8827822B932B1296FA010C0160
:107F200087BEE89511244E5F5F4FF1E0A038BF0790
:107F300051F7F601A7BEE89507B600FCFDCF97BE46
:107F4000E89526C08437B1F42ED02DD0F82E2BD052
:107F50003CD0F601EF2C8F010F5F1F4F84911BD097
:107F6000EA94F801C1F70894C11CD11CFA94CF0C13
:107F7000D11C0EC0853739F428D08EE10CD085E9AC
:107F80000AD08FE07ACF813511F488E018D01DD067
:107F900080E101D065CF982F8091C00085FFFCCF94
:107FA0009093C60008958091C00087FFFCCF809118
:107FB000C00084FD01C0A8958091C6000895E0E648
:107FC000F0E098E1908380830895EDDF803219F02E
:107FD00088E0F5DFFFCF84E1DECF1F93182FE3DFCA
:107FE0001150E9F7F2DF1F91089580E0E8DFEE27F6
:047FF000FF270994CA
:027FFE00040479
:00000001FF
