:020000040000FA
:100000000C9463000C948B000C948B000C948B006C
:100010000C948B000C948B000C948B000C948B0034
:100020000C948B000C948B000C948B000C948B0024
:100030000C948B000C948B000C948B000C948B0014
:100040000C94FB050C948B000C946B060C944506E9
:100050000C948B000C948B000C948B000C948B00F4
:100060000C948B000C948B000000000023002600F1
:10007000290000000008000201000003040700003E
:1000800000000000000000000000250028002B00F8
:1000900000000000240027002A00040404040404D3
:1000A0000404020202020202030303030303010227
:1000B00004081020408001020408102001020408F6
:1000C00010209D06E10B11241FBECFEFD8E0DEBF4C
:1000D000CDBF23E0A6E6B2E001C01D92A03AB20770
:1000E000E1F712E0A0E0B1E0EAE6FDE102C0059030
:1000F0000D92A636B107D9F710E0C2E6D0E004C0F1
:100100002197FE010E94A70CC136D107C9F70E94B2
:10011000D5060C94A80E0C940000CF93DF9390E0CA
:10012000FC01E255FF4F249186569F4FFC018491BC
:100130008823C1F090E0880F991FFC01E057FF4F22
:10014000C591D491FC01EA57FF4FA591B4919FB797
:10015000F8943881822F809583238883EC91E22B59
:10016000EC939FBFDF91CF91089590E0FC01EE5892
:10017000FF4F2491FC01E255FF4F3491FC01E656FC
:10018000FF4FE491EE23C1F1222339F02330E9F04F
:1001900090F4213001F1223011F1F0E0EE0FFF1F59
:1001A000E859FF4FA591B491EC91E32381E090E0F1
:1001B00029F580E008952730A9F02830C9F02430CF
:1001C00061F7809180008F7D03C0809180008F77E0
:1001D00080938000E2CF84B58F7784BDDECF84B575
:1001E0008F7DFBCF8091B0008F778093B000D5CF0B
:1001F0008091B0008F7DF9CF80E090E00895AF92BC
:10020000BF92CF92DF92EF92FF920F931F93CF9303
:10021000DF936C017B018B01040F151FEB015E0165
:10022000AE18BF08C017D10759F06991D601ED91FA
:10023000FC910190F081E02DC6010995892B79F799
:10024000C501DF91CF911F910F91FF90EF90DF904B
:10025000CF90BF90AF900895FC01538D448D252F12
:1002600030E0842F90E0821B930B541710F0CF9650
:10027000089501970895FC01918D828D981761F082
:10028000A28DAE0FBF2FB11D5D968C91928D9F5F99
:100290009F73928F90E008958FEF9FEF0895FC0178
:1002A000918D828D981731F0828DE80FF11D858D2B
:1002B00090E008958FEF9FEF0895FC01918D228DBE
:1002C000892F90E0805C9F4F821B91098F73992743
:1002D000089583EF92E00E945D0121E0892B09F4EB
:1002E00020E0822F089580E090E0892B29F00E9481
:1002F000690181110C9400000895FC01A48DA80FE0
:10030000B92FB11DA35ABF4F2C91848D90E0019657
:100310008F739927848FA689B7892C93A089B18977
:100320008C91837080648C93938D848D981306C018
:100330000288F389E02D80818F7D80830895EF927C
:10034000FF920F931F93CF93DF93EC0181E0888F8F
:100350009B8D8C8D98131AC0E889F989808185FF5F
:1003600015C09FB7F894EE89FF896083E889F98901
:1003700080818370806480839FBF81E090E0DF9103
:10038000CF911F910F91FF90EF900895F62E0B8D56
:1003900010E00F5F1F4F0F731127E02E8C8D8E1111
:1003A0000CC00FB607FCFACFE889F989808185FF78
:1003B000F5CFCE010E947D01F1CFEB8DEC0FFD2F2B
:1003C000F11DE35AFF4FF0829FB7F8940B8FEA8933
:1003D000FB8980818062CFCFCF93DF93EC01888D42
:1003E0008823B9F0AA89BB89E889F9898C9185FDB0
:1003F00003C0808186FD0DC00FB607FCF7CF8C913E
:1004000085FFF2CF808185FFEDCFCE010E947D0177
:10041000E9CFDF91CF910895CF92DF92EF92FF92D3
:100420000F931F930E97FC01EE0FFF1FEE0FFF1FA0
:10043000E654FD4FC080D180E280F3804FB7F8943E
:100440000091EF021091F0022091F1023091F2023E
:100450004FBF0C151D052E053F05FCF0880F991F99
:10046000FC01E050FF4F80819181092E000CAA0B06
:10047000BB0BAC01BD014C0D5D1D6E1D7F1D81E0F0
:1004800040175107620773070CF080E01F910F912E
:10049000FF90EF90DF90CF90089581E0F7CF0F931A
:1004A0001F93CF93DF93EC012E97CC0FDD1FFE013E
:1004B000E252FD4F208131812130310581F48C01E0
:1004C0000E948D00802F0E94B500CE52DD4F21E0AA
:1004D00030E0019711F030E020E039832883DF918C
:1004E000CF911F910F9108950F931F93CF93DF9397
:1004F0008C0102501109F801EE0FFF1FEE55FD4F60
:10050000208131812130310571F4EC010E948D0090
:100510008C2F0E94B500F801EA56FD4F21E00197AB
:1005200009F020E02083DF91CF911F910F91089572
:1005300042E050E068E471E083EF92E00C94FF0049
:10054000CF93DF93FC0101900020E9F73197AF01D1
:10055000481B590BBC0183EF92E00E94FF00EC01A5
:100560000E9498028C0F9D1FDF91CF910895CF9329
:10057000DF93FC01448155816081718183EF92E0BA
:100580000E94FF00EC010E9498028C0F9D1FDF91DA
:10059000CF910895FC0180819181009711F00C9416
:1005A000E90B60E070E0CB010895FC012481358106
:1005B000232B39F421E0FB018081882349F020E0DE
:1005C00007C0808191810E94980E21E0892BB9F7A4
:1005D000822F08950F931F93CF93DF93EC018881AF
:1005E0009981009759F02A813B812617370730F00F
:1005F00081E0DF91CF911F910F9108958B016F5F83
:100600007F4F0E94D20D009759F0998388831B83F6
:100610000A832C813D81232B59F7FC011082E8CFFE
:1006200080E0E7CFEF92FF920F931F93CF93DF937A
:100630006115710541F480E0DF91CF911F910F9119
:10064000FF90EF90089541155105B1F07B01EC0149
:100650000C811D81040F151FB8010E94EA02882336
:1006600051F3288139818C819D81B701820F931FBD
:100670000E94A10E1D830C8381E0DECFCF93DF9318
:10068000EC0188819981009711F00E94490D19822F
:1006900018821D821C821B821A82DF91CF910895DD
:1006A000EF92FF920F931F93CF93DF93EC017B01A7
:1006B000198218821B821A821D821C82FB01019002
:1006C0000020E9F731978F01061B170BB8010E9434
:1006D000EA02811109C0CE01DF91CF911F910F91E4
:1006E000FF90EF900C943E031D830C83B70188812B
:1006F0009981DF91CF911F910F91FF90EF900C9412
:10070000A10EEF92FF920F931F93CF93DF938C0173
:100710007B01EB0109900020E9F72197C61BD70B5D
:10072000BE010E94EA02811109C0C801DF91CF9188
:100730001F910F91FF90EF900C943E03F801D58329
:10074000C483B70180819181DF91CF911F910F9177
:10075000FF90EF900C94A10ECF92DF92EF92FF9258
:100760000F931F93CF93DF936C017B018A01461790
:10077000570720F48F2D7A01062F182F6AE471E0B5
:10078000C6010E945003C0919A03D0919B03EC16BE
:10079000FD06F8F40C171D0708F4E801E091960334
:1007A000F0919703EC0FFD1F10811082609196036A
:1007B000709197036E0D7F1DC6016115710599F04B
:1007C0000E9481038091960390919703C80FD91FCF
:1007D0001883C601DF91CF911F910F91FF90EF9089
:1007E000DF90CF9008950E943E03ECCF0F931F93AC
:1007F000CF93DF93CDB7DEB762970FB6F894DEBF25
:100800000FBECDBF8C01CB01F80111821082138283
:100810001282158214824AE0BE016F5F7F4F0E94F0
:10082000100CBE016F5F7F4FC8010E94810362966A
:100830000FB6F894DEBF0FBECDBFDF91CF911F91F1
:100840000F910895CF93DF93EC01FB0101900020FD
:10085000E9F73197AF01461B570B0E941203811134
:1008600003C0CE010E943E03CE01DF91CF910895D7
:10087000CF93DF93EC01FB0144815581608171814D
:100880000E941203811103C0CE010E943E03CE01DB
:10089000DF91CF910895FC0180819181009711F043
:1008A0000C94490D08958F929F92AF92BF92CF9270
:1008B000DF92EF92FF920F931F93CF93DF9300D0BD
:1008C00000D000D0CDB7DEB78C017B015A016AE4BD
:1008D00071E00E9450036701F12CE12C450181E099
:1008E000881A9108F601619171916F01CE0101960C
:1008F0000E94F6034D815E8169817A81C8010E9460
:100900001203CE0101960E944B048E149F0439F00D
:1009100042E050E06BE471E0C8010E941203FFEF77
:10092000EF1AFF0AAE14BF04E9F6C80126960FB607
:10093000F894DEBF0FBECDBFDF91CF911F910F9115
:10094000FF90EF90DF90CF90BF90AF909F908F90EF
:1009500008951F93CF93DF93EC01162F0E945A0C3A
:10096000181739F0612FCE01DF91CF911F910C94B0
:10097000620CDF91CF911F910895EF92FF920F9338
:100980001F93CF93DF9302EA12E0D0E0C0E0F801BA
:10099000119211928F0160E0CE010E94A90421966C
:1009A000CC30D105A1F70EED12E0F80111921192B1
:1009B0008F0160E0CE010E94A9042196C231D105C9
:1009C000A1F70CE011E024E1E22EF12CF801E19214
:1009D000F1928F0164E1CE010E94A9042196CE31EB
:1009E000D105A1F700E011E094E1E92EF12CF80126
:1009F000E192F1928F0164E1CE010E94A904219657
:100A0000C432D105A1F704E211E08AE0E82EF12C0E
:100A1000F801E192F1928F016AE0CE010E94A904EF
:100A20002196CA32D105A1F78EE491E0DF91CF91F2
:100A30001F910F91FF90EF900C94A0020C945A0C10
:100A4000EF92FF920F931F93CF93DF9300D000D0CC
:100A500000D0CDB7DEB742EAE42E42E0F42E10E03B
:100A600000E0C8010E941E0590E0823091050CF460
:100A7000A4C00E94BD044CE050E062EA72E0CE01E6
:100A800001960E945304CE0101960E94B702CE0146
:100A900001960E944B043EEDE32E32E0F32E0CE073
:100AA00010E0C8010E941E0590E0853691050CF407
:100AB00093C00E94BD0446E050E06EED72E0CE01AE
:100AC00001960E945304CE0101960E94B702CE0106
:100AD00001960E944B042CE0E22E21E0F22E02E16E
:100AE00010E0C8010E941E0590E0F70181939193E8
:100AF0007F010F5F1F4F0E31110599F74CE050E059
:100B00006CE071E0CE0101960E945304CE01019683
:100B10000E94B702CE0101960E944B0490E0E92E9C
:100B200091E0F92EC8010E941E0590E0F701819323
:100B300091937F010F5F1F4F0432110599F746E033
:100B400050E060E071E0CE0101960E945304CE01B6
:100B500001960E94B702CE0101960E944B0484E2E6
:100B6000E82E81E0F82EC8010E941E0590E0F701F2
:100B7000819391937F010F5F1F4F0A32110599F7FF
:100B800046E050E064E271E0CE0101960E94530419
:100B9000CE0101960E94B702CE0101960E944B043D
:100BA00026960FB6F894DEBF0FBECDBFDF91CF9172
:100BB0001F910F91FF90EF900895F701819391930A
:100BC0007F01C80102960E9474020F5F1F4F0C3014
:100BD000110509F046CF4FCFF701819391937F0123
:100BE000C80102960E944F020F5F1F4F023111058C
:100BF00009F057CF60CF1F920F920FB60F921124BA
:100C00002F933F938F939F93AF93BF938091EF0266
:100C10009091F002A091F102B091F2023091EE02B7
:100C200023E0230F2D3758F50196A11DB11D209308
:100C3000EE028093EF029093F002A093F102B09342
:100C4000F2028091EA029091EB02A091EC02B09145
:100C5000ED020196A11DB11D8093EA029093EB0273
:100C6000A093EC02B093ED02BF91AF919F918F9151
:100C70003F912F910F900FBE0F901F90189526E86F
:100C8000230F0296A11DB11DD2CF1F920F920FB656
:100C90000F9211242F933F934F935F936F937F9302
:100CA0008F939F93AF93BF93EF93FF9383EF92E064
:100CB0000E947D01FF91EF91BF91AF919F918F9124
:100CC0007F916F915F914F913F912F910F900FBE48
:100CD0000F901F9018951F920F920FB60F9211242C
:100CE0002F938F939F93EF93FF93E0910303F091E2
:100CF00004038081E0910903F0910A0382FD1BC087
:100D0000908180910C038F5F8F7320910D03821768
:100D100041F0E0910C03F0E0ED50FD4F958F809392
:100D20000C03FF91EF919F918F912F910F900FBE28
:100D30000F901F9018958081F4CFE3EFF2E01382BB
:100D4000128288EE93E0A0E0B0E084839583A683CE
:100D5000B7838AE391E09183808385EC90E0958767
:100D6000848784EC90E09787868780EC90E0918B75
:100D7000808B81EC90E0938B828B82EC90E0958B62
:100D8000848B86EC90E0978B868B118E128E138E5F
:100D9000148E6AE471E086E993E00E94500367E5EF
:100DA00071E080E993E00C945003CF93DF93CDB7CB
:100DB000DEB766970FB6F894DEBF0FBECDBF78944E
:100DC00084B5826084BD84B5816084BD85B5826050
:100DD00085BD85B5816085BD80916E008160809301
:100DE0006E0010928100809181008260809381006A
:100DF000809181008160809381008091800081607A
:100E0000809380008091B10084608093B1008091D4
:100E1000B00081608093B00080917A0084608093FC
:100E20007A0080917A00826080937A0080917A00C3
:100E3000816080937A0080917A00806880937A0044
:100E40001092C100E0910303F091040382E08083DB
:100E5000E091FF02F09100031082E0910103F09114
:100E600002038FEC808310920B03E0910703F09153
:100E7000080386E08083E0910503F09106038081FA
:100E800080618083E0910503F09106038081886092
:100E90008083E0910503F091060380818068808360
:100EA000E0910503F091060380818F7D808381E6C8
:100EB00091E00E94A00280E993E00E94B7020E94A4
:100EC000200550E0252E50E0352E83EF92E00E9461
:100ED0005D01181619060CF0DBC283EF92E00E9448
:100EE0003B018A3009F0C8C245E050E070E060E0A4
:100EF000CE0101960E94AC0369E671E0CE01019635
:100F00000E94D502182FCE0101960E944B04112396
:100F100009F4F6C047E050E065E070E0CE010196CC
:100F20000E94AC036FE671E0CE0101960E94D502EB
:100F3000182FCE0101960E944B04112309F471C0B1
:100F400049E050E067E070E0CE0101960E94AC03FA
:100F5000CE0101960E94CA026B01CE0101960E9449
:100F60004B0440919A0350919B036AE070E0CE01DC
:100F700001960E94AC03CE0101960E94CA025B0159
:100F8000CE0101960E944B04C60102978C30910558
:100F900028F082E791E00E94A0023CC0FC01EE0F25
:100FA000FF1FEE55FD4FA082B1826A2D0E94A90459
:100FB000C6010E9474026A2D7B2DCE0101960E940B
:100FC000F603B601CE0107960E94F60361E971E0CF
:100FD000CE010D960E945003BE01695F7F4FCE0186
:100FE0000D960E9438046EE971E00E942204BE0151
:100FF0006F5F7F4F0E9438040E94B702CE010D96AA
:101000000E944B04CE0107960E944B04CE0101962C
:101010000E944B046AE471E086E993E00E94810338
:1010200054CF47E050E065E070E0CE0101960E94A9
:10103000AC0362E672E0CE0101960E94D502182F41
:10104000CE0101960E944B04112321F349E050E0A8
:1010500067E070E0CE0101960E94AC03CE010196DC
:101060000E94CA026B01CE0101960E944B0440917E
:101070009A0350919B036AE070E0CE0101960E94B2
:10108000AC03CE0101960E94CA02B62EA72ECE0155
:1010900001960E944B04C60102978C30910508F01E
:1010A00078CF0B2D1A2D0F3F110521F01CF08CEA83
:1010B00091E071CF880F991FFC01E45FFE4F11830F
:1010C0000083C60140966B2D0E94A904B801CE0191
:1010D00001960E94F603B601CE0107960E94F60320
:1010E00061E971E0CE010D960E945003BE01695F77
:1010F0007F4FCE010D960E94380465ED71E075CFEB
:1011000045E050E070E060E0CE0101960E94AC0343
:101110006AEE71E0CE0101960E94D502182FCE0131
:1011200001960E944B04112309F42AC147E050E0C4
:1011300065E070E0CE0101960E94AC036FE671E0BD
:10114000CE0101960E94D502182FCE0101960E9471
:101150004B04112309F447C049E050E067E070E018
:10116000CE0101960E94AC03CE0101960E94CA02F4
:101170006B01CE0101960E944B0440919A0350915D
:101180009B036AE070E0CE0101960E94AC03CE01A1
:1011900001960E94CA025B01CE0101960E944B0497
:1011A00026E0C216D10408F0F4CEF601EE0FFF1FC0
:1011B000E252FD4FA082B182C6010C966A2D0E94B8
:1011C000A904C6010E960E944F026A2D7B2DCE0106
:1011D00001960E94F603B601CE0107960E94F6031F
:1011E00060EF71E0F5CE47E050E065E070E0CE01E1
:1011F00001960E94AC0362E672E0CE0101960E9465
:10120000D502182FCE0101960E944B04112309F438
:101210004AC049E050E067E070E0CE0101960E94CC
:10122000AC03CE0101960E94CA026B01CE01019669
:101230000E944B0440919A0350919B036AE070E036
:10124000CE0101960E94AC03CE0101960E94CA0213
:10125000B62EA72ECE0101960E944B0436E0C3168F
:10126000D10408F096CE0B2D1A2D0F3F110511F069
:101270000CF01DCFF601EE0FFF1FE050FF4F118362
:101280000083C6014E966B2D0E94A904B801CE01C1
:1012900001960E94F603B601CE0107960E94F6035E
:1012A00060EF71E01FCF47E050E065E070E0CE01F5
:1012B00001960E94AC036CEF71E0CE0101960E9492
:1012C000D502182FCE0101960E944B04112309F478
:1012D000A1CE49E050E067E070E0CE0101960E94A7
:1012E000AC03CE0101960E94CA026B01CE010196A9
:1012F0000E944B0440919A0350919B036AE070E076
:10130000CE0101960E94AC03CE0101960E94CA0252
:10131000B62EA72ECE0101960E944B0446E0C416BD
:10132000D10408F036CE0B2D1A2D0F3F110511F008
:101330000CF0BDCEF601EE0FFF1FEC5DFE4F1183EA
:101340000083C60184966B2D0E94A904B801CE01CA
:1013500001960E94F603B601CE0107960E94F6039D
:1013600060EF71E0CE010D960E945003BE01695FEF
:101370007F4FCE010D960E9438046FEF71E035CE9D
:101380006DE172E086E993E00E94D502882319F0AE
:101390000E9420053FCE64E272E086E993E00E945D
:1013A000D502882309F44DC04CE050E062EA72E0B7
:1013B000CE0101960E945304CE0101960E94B7020D
:1013C000CE0101960E944B0446E050E06EED72E0C3
:1013D000CE0101960E945304CE0101960E94B702ED
:1013E000CE0101960E944B044CE050E06CE071E0AD
:1013F000CE0101960E945304CE0101960E94B702CD
:10140000CE0101960E944B0446E050E060E071E09E
:10141000CE0101960E945304CE0101960E94B702AC
:10142000CE0101960E944B0446E050E064E271E078
:10143000CE0101960E945304CE0101960E94B7028C
:10144000E5CD6EE471E086E993E00E94D502882341
:1014500019F00E94BD04DECD60E372E086E993E0FE
:101460000E94D502882329F080E993E00E94B70208
:10147000D1CD88E392E08FCD89831A8241E050E09C
:10148000BE016F5F7F4F86E993E00E9412031DCD7E
:1014900082EA92E09C8B8B8B02E010E0EB89FC8966
:1014A00081919191FC8BEB8B019709F07BC0802F90
:1014B0000E94B500992493948130910509F0912CF4
:1014C00098012C563D4F5901F9012081921609F4DB
:1014D00069C09801220F331F220F331FA901425AFE
:1014E0005D4F5E8B4D8BFA0140805180628073802E
:1014F0002FB7F8944091EF025091F0026091F10201
:101500007091F2022FBF4415550566057705A4F0CA
:10151000F801EE0FFF1FE85FFE4FC080D1800D2C59
:10152000000CEE08FF084C0C5D1C6E1C7F1C441662
:10153000550666067706B4F5B801019709F41BC194
:10154000CE0101960E94F6036BE472E0CE0107968D
:101550000E945003BE016F5F7F4FCE0107960E942D
:10156000380463E572E00E9422040E94B702CE01B3
:1015700007960E944B04CE0101960E944B042FB7A0
:10158000F8948091EF029091F002A091F102B09155
:10159000F2022FBFED89FE8980839183A283B383FA
:1015A000F50190820F5F1F4F0E30110509F076CFC5
:1015B0006EEDC62E62E0D62EF601819191916F01FB
:1015C000019709F05BC0802F0E94B5004C01AA244E
:1015D000A394B12C019711F0B12CA12CC801880F54
:1015E000991F9C012A543D4F7901F9018081918115
:1015F000A816B90609F442C0C8010E940C0288234B
:10160000E9F1B801CE0101968A94892809F4C7C08E
:101610000E94F6036BE472E0CE0107960E9450032D
:10162000BE016F5F7F4FCE0107960E94380463E5CD
:1016300072E00E9422040E94B702CE0107960E9427
:101640004B04CE0101960E944B042FB7F894809171
:10165000EF029091F002A091F102B091F2022FBF3F
:10166000F801EE0FFF1FEE0FFF1FEE57FD4F8083B7
:101670009183A283B383F701B182A082F6013297EE
:1016800080819181889709F064C0C8010E940C0292
:10169000882309F45EC082EF800F806480937C0011
:1016A00080917A00806480937A0080917A0086FD30
:1016B000FCCFA0907800B0907900C801880F991FE6
:1016C0004C97FC01EC5DFE4F20813181AC014E5204
:1016D0005D4F7A01FA0180819181A901480F591F5C
:1016E000A416B5062CF4821B930B8A159B058CF16E
:1016F000B501CE0101960E94F603B801CE0107960E
:101700000E94F6036DE572E0CE010D960E94500333
:10171000BE01695F7F4FCE010D960E9438046CE4D4
:1017200071E00E942204BE016F5F7F4F0E94380467
:101730000E94B702CE010D960E944B04CE0107967F
:101740000E944B04CE0101960E944B04F701B18226
:10175000A0820F5F1F4F0431110509F02DCF211416
:10176000310409F4B2CB0E946901882309F4A9CBA2
:101770000E940000A6CBCE0101960E94F6036BE406
:1017800072E0CE0107960E945003BE016F5F7F4F4B
:10179000CE0107960E94380469E572E0E4CE0E940B
:1017A000F6036BE472E0CE0107960E945003BE017F
:1017B0006F5F7F4FCE0107960E94380469E572E0A3
:1017C00038CF80E993E00E944B0486E993E00C94C3
:1017D0004B041F93FC0199278827BC01E8941191C1
:1017E0001032E9F3193010F01E30C8F31B3251F0FB
:1017F0001D3249F4689406C00E941B0C610F711DD4
:10180000811D911D119110531A30B0F33EF4909543
:101810008095709561957F4F8F4F9F4F1F910895D1
:10182000BB274A3031F4992322F4BDE2909581958B
:101830009F4F0C94310C592F482F372F262F660FAE
:10184000771F881F991F660F771F881F991F620FC8
:10185000731F841F951F660F771F881F991F089598
:10186000BB27FB015527AA27880F991FAA1FA4177A
:1018700010F0A41B83955051B9F7A05DAA3308F06E
:10188000A95DA193009779F7B111B1931192CB01A2
:101890000C944A0CDC01FC01672F71917723E1F76E
:1018A000329704C07C916D9370836291AE17BF072D
:1018B000C8F30895F999FECF92BD81BDF89A992792
:1018C00080B50895262FF999FECF1FBA92BD81BD2C
:1018D00020BD0FB6F894FA9AF99A0FBE01960895B2
:1018E0002F923F924F925F926F927F928F929F9230
:1018F000AF92BF92CF92DF92EF92FF920F931F931E
:10190000CF93DF93CDB7DEB7CA1BDB0B0FB6F894CE
:10191000DEBF0FBECDBF09942A88398848885F840E
:101920006E847D848C849B84AA84B984C884DF807F
:10193000EE80FD800C811B81AA81B981CE0FD11D63
:101940000FB6F894DEBF0FBECDBFED010895EE0FC8
:10195000FF1F0590F491E02D09940F931F93CF93EF
:10196000DF938230910510F482E090E0E0919E03D5
:10197000F0919F0330E020E0B0E0A0E0309799F4D0
:101980002115310509F44AC0281B390B24303105D3
:10199000D8F58A819B816115710589F1FB019383DB
:1019A0008283FE0111C04081518102811381481759
:1019B0005907E0F04817590799F4109761F012960B
:1019C0000C93129713961C933296CF01DF91CF910F
:1019D0001F910F91089500939E0310939F03F4CFDE
:1019E0002115310551F04217530738F0A901DB01E9
:1019F0009A01BD01DF01F801C1CFEF01F9CF90934A
:101A00009F0380939E03CDCFFE01E20FF31F8193CE
:101A100091932250310939832883D7CF20919C0399
:101A200030919D03232B41F42091320130913301F9
:101A300030939D0320939C0320913001309131011C
:101A40002115310541F42DB73EB740913401509135
:101A50003501241B350BE0919C03F0919D03E217A7
:101A6000F307A0F42E1B3F0B2817390778F0AC01C1
:101A70004E5F5F4F2417350748F04E0F5F1F50939E
:101A80009D0340939C03819391939FCFF0E0E0E00E
:101A90009CCFCF93DF930097E9F0FC01329713823C
:101AA0001282A0919E03B0919F03ED0130E020E0EF
:101AB0001097A1F420813181820F931F20919C0304
:101AC00030919D032817390709F061C0F0939D03F9
:101AD000E0939C03DF91CF910895EA01CE17DF07D1
:101AE000E8F54A815B819E0141155105B1F7E90195
:101AF000FB83EA8349915991C40FD51FEC17FD0769
:101B000061F4808191810296840F951FE901998388
:101B10008883828193819B838A83F0E0E0E0129640
:101B20008D919C9113970097B9F52D913C91119748
:101B3000CD010296820F931F20919C0330919D034B
:101B40002817390739F6309751F510929F031092F4
:101B50009E03B0939D03A0939C03BCCFD383C28309
:101B600040815181840F951FC817D90761F44E5FDA
:101B70005F4F88819981480F591F518340838A8123
:101B80009B81938382832115310509F0B0CFF093B7
:101B90009F03E0939E039ECFFD01DC01C0CF138223
:101BA0001282D7CFB0E0A0E0E8EDFDE00C94720C1B
:101BB0008C01009751F4CB010E94AD0C8C01C8013F
:101BC000CDB7DEB7E0E10C948E0CFC01E60FF71FF9
:101BD0009C0122503109E217F30708F49DC0D90196
:101BE000CD91DC911197C617D70798F0C530D10574
:101BF00030F3CE0104978617970708F3C61BD70B5F
:101C00002297C193D1936D937C93CF010E94490D8C
:101C1000D6CF5B01AC1ABD0A4C018C0E9D1EA09163
:101C20009E03B0919F03512C412CF12CE12C109775
:101C300031F580919C0390919D038815990509F0D9
:101C40005CC04616570608F058C08091300190914C
:101C50003101009741F48DB79EB740913401509106
:101C60003501841B950BE817F90708F055C0F09370
:101C70009D03E0939C03F90171836083A0CF8D9154
:101C80009C91119712966C90129713967C901397D3
:101C9000A815B90559F56C0142E0C40ED11CCA144F
:101CA000DB0420F1AC014A195B09DA0112961597A1
:101CB00080F06282738251834083D9016D937C935B
:101CC000E114F10471F0D7011396FC93EE9312978F
:101CD00076CF22968C0F9D1FF90191838083F301AB
:101CE000EFCFF0939F03E0939E0369CF4816590608
:101CF00008F42C017D01D3019ACFCB010E94AD0CD9
:101D00007C01009749F0AE01B8010E948F0EC80116
:101D10000E94490D870153CF10E000E050CFFB0136
:101D2000DC0102C001900D9241505040D8F7089557
:101D3000FB01DC018D91019080190110D9F3990B01
:101D40000895FB01DC0101900D920020E1F7089558
:101D500010E0C2E6D0E004C0FE010E94A70C21966C
:101D6000C336D107C9F7F894FFCF1400140014004C
:101D700014001400140014001400140014001400C3
:101D800014001400140014001400140014001900AE
:101D9000190019001900190019000000A0038000A3
:101DA000000000009F01FF002C01EC015D013B01E0
:101DB0004F010D0A002C20004D454D52455345540E
:101DC00000554E4F20302E302E32006D696D61630C
:101DD000726F004450494E20005320004D616C66E4
:101DE0006F72656420636F6D6D616E642E20496E45
:101DF00076616C69642070696E2E004449474954CD
:101E0000414C2050494E2000204953204E4F57202E
:101E10004D4F444520004D616C666F726D656420C6
:101E2000636F6D6D616E642E2054696D6520616213
:101E30006F7665206D61782028323535292E002097
:101E40004E4F57204841532054494D454F5554203B
:101E50004F4620004150494E2000414E414C4F47D3
:101E60002050494E20005620002048415320564122
:101E70004C5545204348414E4745204D494E494D1C
:101E8000554D204F462000454550524F4D00434F81
:101E90004E46494753544154450056455253494FC5
:101EA0004E004D616C666F726D656420636F6D6D81
:101EB000616E642E00425554544F4E200020444F12
:101EC000574E0020555000504F54454E54200000AE
:107E0000112484B714BE81FFF0D085E080938100F7
:107E100082E08093C00088E18093C10086E0809377
:107E2000C20080E18093C4008EE0C9D0259A86E02C
:107E300020E33CEF91E0309385002093840096BBD3
:107E4000B09BFECF1D9AA8958150A9F7CC24DD24C4
:107E500088248394B5E0AB2EA1E19A2EF3E0BF2EE7
:107E6000A2D0813461F49FD0082FAFD0023811F036
:107E7000013811F484E001C083E08DD089C08234E0
:107E800011F484E103C0853419F485E0A6D080C0E4
:107E9000853579F488D0E82EFF2485D0082F10E0AE
:107EA000102F00270E291F29000F111F8ED06801E7
:107EB0006FC0863521F484E090D080E0DECF843638
:107EC00009F040C070D06FD0082F6DD080E0C81688
:107ED00080E7D80618F4F601B7BEE895C0E0D1E017
:107EE00062D089930C17E1F7F0E0CF16F0E7DF06D8
:107EF00018F0F601B7BEE89568D007B600FCFDCFD4
:107F0000A601A0E0B1E02C9130E011968C91119780
:107F100090E0982F8827822B932B1296FA010C0160
:107F200087BEE89511244E5F5F4FF1E0A038BF0790
:107F300051F7F601A7BEE89507B600FCFDCF97BE46
:107F4000E89526C08437B1F42ED02DD0F82E2BD052
:107F50003CD0F601EF2C8F010F5F1F4F84911BD097
:107F6000EA94F801C1F70894C11CD11CFA94CF0C13
:107F7000D11C0EC0853739F428D08EE10CD085E9AC
:107F80000AD08FE07ACF813511F488E018D01DD067
:107F900080E101D065CF982F8091C00085FFFCCF94
:107FA0009093C60008958091C00087FFFCCF809118
:107FB000C00084FD01C0A8958091C6000895E0E648
:107FC000F0E098E1908380830895EDDF803219F02E
:107FD00088E0F5DFFFCF84E1DECF1F93182FE3DFCA
:107FE0001150E9F7F2DF1F91089580E0E8DFEE27F6
:047FF000FF270994CA
:027FFE00040479
:00000001FF
